:020000040800F2
:1000000000900020D11F00086D0400086F04000854
:1000100000000000000000000000000000000000E0
:100020000000000000000000000000007104000853
:1000300000000000000000007304000875040008C0
:1000400021200008000000002120000821200008D5
:10005000212000082120000821200008212000087C
:1000600000000000212000082120000821200008B5
:1000700021200008212000082120000800000000A5
:10008000212000082120000821200008212000084C
:10009000212000082120000821200008212000083C
:1000A000212000082120000821200008212000082C
:0800B0002120000821200008B6
:1000B80010B5064C2378002B07D1054B002B02D036
:1000C800044800E000BF0123237010BD0C0000208D
:1000D800000000007C200008044B10B5002B03D062
:1000E8000349044800E000BF10BDC04600000000FE
:1000F800100000207C200008002243088B4274D3A3
:1001080003098B425FD3030A8B4244D3030B8B4210
:1001180028D3030C8B420DD3FF22090212BA030C19
:100128008B4202D31212090265D0030B8B4219D3FA
:1001380000E0090AC30B8B4201D3CB03C01A52411A
:10014800830B8B4201D38B03C01A5241430B8B4262
:1001580001D34B03C01A5241030B8B4201D30B034B
:10016800C01A5241C30A8B4201D3CB02C01A524172
:10017800830A8B4201D38B02C01A5241430A8B4235
:1001880001D34B02C01A5241030A8B4201D30B021E
:10019800C01A5241CDD2C3098B4201D3CB01C01A38
:1001A800524183098B4201D38B01C01A5241430942
:1001B8008B4201D34B01C01A524103098B4201D330
:1001C8000B01C01A5241C3088B4201D3CB00C01A9D
:1001D800524183088B4201D38B00C01A5241430815
:1001E8008B4201D34B00C01A5241411A00D201463A
:1001F800524110467047FFE701B5002000F0F0F8C3
:1002080002BDC0460029F7D076E7704703460B4386
:100218007FD4002243088B4274D303098B425FD3F7
:10022800030A8B4244D3030B8B4228D3030C8B4223
:100238000DD3FF22090212BA030C8B4202D3121209
:10024800090265D0030B8B4219D300E0090AC30BDE
:100258008B4201D3CB03C01A5241830B8B4201D38B
:100268008B03C01A5241430B8B4201D34B03C01A74
:100278005241030B8B4201D30B03C01A5241C30AEC
:100288008B4201D3CB02C01A5241830A8B4201D35D
:100298008B02C01A5241430A8B4201D34B02C01A47
:1002A8005241030A8B4201D30B02C01A5241CDD2EC
:1002B800C3098B4201D3CB01C01A524183098B4237
:1002C80001D38B01C01A524143098B4201D34B0120
:1002D800C01A524103098B4201D30B01C01A524183
:1002E800C3088B4201D3CB00C01A524183088B420A
:1002F80001D38B00C01A524143088B4201D34B00F3
:10030800C01A5241411A00D2014652411046704764
:100318005DE0CA0F00D04942031000D34042534069
:1003280000229C4603098B422DD3030A8B4212D329
:10033800FC22890112BA030A8B420CD3890192115B
:100348008B4208D3890192118B4204D389013AD098
:10035800921100E08909C3098B4201D3CB01C01A6D
:10036800524183098B4201D38B01C01A5241430980
:100378008B4201D34B01C01A524103098B4201D36E
:100388000B01C01A5241C3088B4201D3CB00C01ADB
:10039800524183088B4201D38B00C01A5241D9D2F3
:1003A80043088B4201D34B00C01A5241411A00D274
:1003B8000146634652415B10104601D34042002B70
:1003C80000D54942704763465B1000D3404201B5EF
:1003D800002000F005F802BD0029F8D016E77047A4
:1003E8007047C04672B6FEE700B593B034220021CC
:1003F80005A801F037FE1022002101A801F032FE05
:100408008020800000F0D8FF02230593FE33089374
:100418000023099340220A920C9305A800F0B4FA2D
:1004280000280DD10723019300230293039304931B
:10043800002101A800F056FD002803D113B000BD2B
:10044800FFF7D0FFFFF7CEFF10B501F057F8FFF721
:10045800CBFF01F01FFC01F059FC01F0C5FC01F0D5
:1004680037FDFEE7FEE7FEE77047704710B501F07D
:1004780059F810BD82B00A4B196C01221143196456
:10048800196C0A400092009ADA6B802149050A43E8
:10049800DA63DB6B0B400193019B02B07047C046E7
:1004A8000010024030B583B00400002301930028F7
:1004B80000D106E1836D002B13D023689A68D2001F
:1004C8001CD49A6880491140802252050A439A60D8
:1004D8007E4B18687E49FFF70FFE013040000190FF
:1004E80009E001F053FC0023E3655422A354E4E738
:1004F800019B013B0193019B002BF9D123689A686A
:10050800D20000D59DE0A26D10210A43A265E26DDC
:100518000F390A43E26501209A6804210D0015404D
:10052800114200D00125A26DD20600D5C2E0002DEF
:1005380000D0BFE0A26D67490A400631FF310A4387
:10054800A2659A68D20752D4227E9203A1680A4310
:10055800617EC9030A43A57E69030A43216B00290A
:1005680001D0802149010A43E1680A432169002931
:1005780069DB802189030A432C21615C49000A4315
:100588002021615C012961D0616A002905D0E0253C
:100598006D002940A56A29430A43D9684E4D294070
:1005A8000A43DA6063689B0F9B07E26C1A433C219D
:1005B800615C012959D021680B69484D2B401343D0
:1005C8000B616368C0221206934210D08022D205C4
:1005D80093420CD080221206934208D040490A6800
:1005E800404D2A40F025AD032B4013430B60226891
:1005F800536907218B43616B0B43536121684B6936
:1006080070229343A26B120113434B612369002BA1
:1006180035D12268916A103B0B43936223685A696B
:1006280007231340626B9A423BD0A36D1222934377
:10063800023A1343A365E36D0F3A1343E3650120C0
:100648003DE0002068E74900490894E7002D03D100
:10065800802149020A4397E7A16D20252943A16516
:10066800E16D1F3D2943E1658EE7216C0B43616C09
:100678000B43A16C0B43134301221A439BE78022CF
:1006880092039342CAD121688B6AE369013B9B00BC
:100698001C221A4010235B429340226E13438B6244
:1006A800BCE70023E365A36D03229343023A134397
:1006B800A36504E0A36D10221343A365012003B0D2
:1006C80030BD0120FBE7C046E8FFFF6F08000020AF
:1006D800400D0300FDFEFFFF0102DEFF02FCFF1FCD
:1006E80008270140FFFFC3FFF0B583B004000023D3
:1006F800019305695433C35C012B00D130E15423C5
:100708000122C25400688368033216001E401A4250
:1007180009D0A36D1C321343A36501205423002282
:10072800E25403B0F0BD4B68022B00D1D6E0802222
:100738001206954226D08B4A954223D01F22134099
:10074800103A9A40256E95432A000D686F032FD101
:10075800AD0E1F262E409E40164326664D68AB08F8
:100768000133E269934213D8826A1F231D40103B6C
:100778001E00AE40B2430E68B60E3340AB40134382
:10078800836205E0826A0B685B035B0B1343836239
:10079800206842690B681B029A438D682B40724D92
:1007A8002B40134343610B68002B4FDB0020B5E758
:1007B800EF07D0D4AE0727D46E0727D42E0727D447
:1007C800EE0627D4AE0627D46E0627D42E0627D4E5
:1007D800EE0527D4AE0527D46E0527D42E0527D4D9
:1007E800EE0427D4AE0427D46E0427D42E0427D4CD
:1007F800EE0327D4AE0327D48027FF022E003E4005
:100808003D42A8D01226A6E70126A4E70226A2E7C1
:100818000326A0E704269EE705269CE706269AE716
:10082800072698E7082696E7092694E70A2692E716
:100838000B2690E70C268EE70D268CE70E268AE716
:100848000F2688E7102686E7112684E7474A1168AD
:10085800E02252040A404648834207D04548834272
:1008680022D0454883422CD0002057E70802F5D40F
:1008780080231B041A433D490B68404803401A4330
:100888000A603F4B18683F49FFF736FC01304300C8
:100898001B189B00019302E0019B013B0193019B04
:1008A800002BF9D1002039E7C801DAD480235B0492
:1008B8001A432E490B68314803401A430A60002046
:1008C8002CE74B024AD48023DB031A4327490B68E1
:1008D8002A4803401A430A6000201FE780231B06AA
:1008E8009D4202D01F4B9D4205D1826A0B685B0373
:1008F8005B0B9A4382620B68002B01DB00200DE73B
:100908001A4A12681A498B4207D01A498B420FD0EB
:1009180019498B4217D0002000E7A0235B041A4036
:1009280012490B68154803401A430A600020F5E68F
:10093800C0231B041A400D490B68104803401A4392
:100948000A600020EAE6C0235B041A4007490B68E6
:100958000A4803401A430A600020DFE60020DDE66B
:100968000220DEE60400008000FFFF0708270140A0
:10097800001000B0004000B8002000B4FFFF3FFEA8
:1009880008000020400D030070B582B0041E00D19D
:1009980029E20368DB0739D5C14A916838230B403F
:1009A800D16803220A40102B26D0082B26D0636872
:1009B8008022520293427FD0A022D202934200D1D9
:1009C80081E0B74B1A68B7490A401A601A68B649F5
:1009D8000A401A606368002B00D180E000F0AEFD89
:1009E8000500AF4B1B689B0310D400F0A7FD401B0C
:1009F8006428F6D90320F7E1032AD6D1A84B1B684F
:100A08009B0303D56368002B00D1EFE123689B07A4
:100A180031D5A34A936838210B40D16803220A4094
:100A2800102B6AD0002B6BD19D4A1268520503D552
:100A3800E268002A00D1DBE1994842689B490A40F4
:100A4800616909020A434260002B0DD10368984985
:100A58000B4021690B4303600368DB0A07221A4035
:100A6800944BD340944A1360944B186800F01AFDD5
:100A7800002800D0BEE123681B0700D481E0884B22
:100A88009A6838231340182B73D0A369002B00D120
:100A9800B4E0834A136E01210B43136600F04EFD48
:100AA80005007F4B1B6E9B076BD400F047FD401B76
:100AB8000228F6D9032097E1794A116880235B025E
:100AC8000B43136086E7764B19688022D2020A43EB
:100AD8001A601968802252020A431A607AE700F005
:100AE8002DFD05006E4B1B689B038FD500F026FD7E
:100AF800401B6428F6D9032076E1022A92D193E7B5
:100B0800E368002B22D0664A136869490B402169C3
:100B18000B431360116880235B000B43136000F0E4
:100B28000DFD05005E4B1B685B0506D400F006FD55
:100B3800401B0228F6D9032056E159494B685B4A05
:100B480013406269120213434B6094E7544A1368D6
:100B58005B490B40136000F0F1FC0500504B1B682B
:100B68005B0588D500F0EAFC401B0228F6D9032073
:100B78003AE14B4B1B6E9B0703D5A369002B00D1B1
:100B88003AE123685B0700D4A2E0454B9A68382312
:100B98001340202B45D0424BDB6BDB004AD4404A44
:100BA800D16B802040050143D163D36B034001938F
:100BB800019B0125434B1B68DB053DD5A368012B31
:100BC8004ED0052B52D0364BDA6D01218A43DA65B7
:100BD800DA6D03318A43DA65A368002B50D000F040
:100BE800ADFC06002E4BDB6D9B076FD400F0A6FC16
:100BF800801B354B9842F5D90320F5E0284A136E3F
:100C080001218B43136600F099FC0500244B1B6EF1
:100C18009B07B6D500F092FC401B0228F6D90320AA
:100C2800E2E01F4BDB6D9B0752D5A368002B4FD129
:100C38000120D9E00025BDE7224A116880235B0026
:100C48000B43136000F07AFC06001E4B1B68DB05A3
:100C5800B4D400F073FC801B0228F6D90320C3E04B
:100C68000F4AD36D01210B43D365B5E70C4BDA6D01
:100C780004210A43DA65DA6D03390A43DA65ABE71A
:100C880000F05CFC0600064BDB6D9B071ED500F0F0
:100C980055FC801B0C4B9842F5D90320A4E0C046B4
:100CA80000100240FFFFFEFFFFFFFBFFFF80FFFF7A
:100CB800FFC7FFFF0024F400080000200400002004
:100CC800FFFEFFFF0070004088130000012D1ED0BA
:100CD800E369002B00D191E04F4A916838220A401D
:100CE800102A5ED0022B18D04B4A13684B490B4090
:100CF800136000F023FC0400474B1B689B0149D597
:100D080000F01CFC001B0228F6D903206CE0424AC4
:100D1800D36B43490B40D363DAE73F4A13683F4933
:100D28000B40136000F00AFC05003B4B1B689B015D
:100D380006D500F003FC401B0228F6D9032053E037
:100D4800354AD36837491940236A606A0343A06A61
:100D580000020343E06A0343206B03430B43D36061
:100D6800116880235B040B431360D16880235B0503
:100D78000B43D36000F0E2FB0400274B1B689B0188
:100D880006D400F0DBFB001B0228F6D903202BE079
:100D9800002029E0204AD36823490B40D360002073
:100DA80022E0012B2CD01C4BDA6803231340216A64
:100DB8008B4227D170231340616A8B4224D1FE21D4
:100DC800C9011140A36A1B0299421FD1F8239B0352
:100DD8001340E16A8B421BD1520F5207236B9A4290
:100DE80018D1002000E0012002B070BD0120FBE70F
:100DF8000120F9E70120F7E70120F5E70020F3E7F4
:100E08000120F1E70120EFE70120EDE70120EBE702
:100E18000120E9E70120E7E700100240FFFFFFFE9D
:100E2800FFFFFFEF8C80C11FFCFFFEEF10B52A4BC0
:100E38009B6838221A4207D1274B1A68D20A07231F
:100E480013402648D84010BD234B9A6838231340D6
:100E5800082B3BD0204B9A6838231340102B0DD019
:100E68001D4B9A6838231340202B31D01A4B9A68AF
:100E780038231340182B26D00020E4E7164AD168FF
:100E88000D3B0B40D2681209072111400131032B99
:100E98000FD01248FFF730F90F4BDA68120A7F2398
:100EA800134058430C4BD968490F0131FFF724F917
:100EB800C9E70B48FFF720F9074BDA68120A7F23C6
:100EC80013405843EEE7FA20C001BCE70448BAE7EC
:100ED80080200002B7E7C046001002400024F4005A
:100EE80000127A0070B504000D00002800D1AAE0B5
:100EF800574B1A68072313408B4221D323689A075C
:100F08000ED55B0705D5534A9168E023DB010B43F7
:100F18009360504A936850490B40A1680B43936013
:100F28002368DB0754D56368012B20D0022B3BD004
:100F3800002B3FD1474A126852051CD401206AE0B1
:100F4800434A136807218B432B43136000F0F6FADA
:100F580006003F4B1A6807231340AB42CED000F07F
:100F6800EDFA801B3D4A9042F3D9032053E0394AF9
:100F78001268920369D537498A6807208243134368
:100F88008B6000F0DBFA0600324B9B6838221A406F
:100F98006368DB009A421BD000F0D0FA801B2F4B0D
:100FA8009842F1D9032036E02A4A12689201E2D425
:100FB800012030E0032B05D0264AD26D9207DAD4FF
:100FC800012028E0234A126E9207D4D4012022E09F
:100FD8001F4B1A6807231340AB421DD823685B07D1
:100FE80006D51C4A93681E490B40E1680B43936081
:100FF800FFF71CFF174B9A68120A0F2313409B0038
:10100800184A9A581F231340D840174B1860174B9B
:10101800186800F047FA70BD0D4A136807218B4322
:101028002B43136000F08AFA0600094B1A6807235D
:101038001340AB42D2D000F081FA801B074B984294
:10104800F3D90320E7E70120E5E70120E3E7C046FD
:101058000020024000100240FFF0FFFF881300004C
:10106800FF8FFFFFBC2000080800002004000020BC
:10107800014B18687047C0460800002010B5FFF7FC
:10108800F7FF064B9A68120B072313409B00044A8C
:101098009A581F231340D84010BDC0460010024084
:1010A800FC200008F0B583B0040003689B0362D5F8
:1010B800584BDB6BDB001ED4564AD16B80204005B1
:1010C8000143D163D36B03400193019B0126524A2C
:1010D800116880235B000B43136000F02FFA0500B2
:1010E8004D4B1B68DB0508D400F028FA401B02288A
:1010F800F6D9032502E00026E9E70025002D23D1D3
:10110800444BD96DC02292000B001340114210D0FD
:10111800A2699A420DD03F4AD36D40490B40D06D29
:10112800802149020143D165D16D3D480140D16517
:10113800D365DB0710D4002D06D1364AD36D374965
:101148000B40A1690B43D365012E15D1314AD36BEE
:1011580034490B40D3630FE000F0F0F907002D4B42
:10116800DB6D9B07E7D400F0E9F9C01B2E4B9842D2
:10117800F5D90325DFE700252368DB0706D5254ACF
:10118800536D03218B4361680B43536523689B07A9
:1011980006D5204A536D0C218B43A1680B43536538
:1011A80023689B0606D51B4A536D20490B40E1680E
:1011B8000B43536523685B040BD5164A536D9B009C
:1011C8009B0861690B4353658023DB0562699A427A
:1011D80011D023681B050BD50E4A536D14490B40DB
:1011E80021690B43536522698023DB019A4209D0A8
:1011F800280003B0F0BD074AD16880235B020B4387
:10120800D360E6E7034AD16880235B020B43D360CF
:10121800EEE7C0460010024000700040FFFCFFFFF0
:10122800FFFFFEFFFFFFFFEF88130000FFCFFFFF68
:10123800FF3FFFFFF0B500235AE084685F000326F4
:10124800BE40B4432600CC68BC4034438460446844
:1012580094434A681609012232409A402243426068
:1012680056E0DC080834A400265805321A409200DB
:101278000F279740BE430F6997403A0032432250E8
:101288005AE0032600E00026A64034003C43434EC3
:101298001832920094513468EA432600AE434F68EE
:1012A800FF0201D52C4326003C4C266064682600CA
:1012B80016404F68BF0201D52C432600374C6660A4
:1012C8008426A459260016404F68BF0301D52C4335
:1012D8002600324C8427E6518026A45922404E68C5
:1012E800F60301D52A0022432C4D80242A510133CC
:1012F8000C682200DA404FD001229A4025001540A0
:101308001442F4D003244E683440013C012C94D993
:1013180003224C682240032A09D0C2685E000324D5
:10132800B440A24314008A68B2402243C260032238
:101338004C682240022A94D004685E0003221700F9
:10134800B740BC434F683A40B24022430260C022D3
:1013580092024C681442CAD09A0814001834A400A7
:101368000E4EA75903241C40E4000F26A640B7439D
:10137800A026F605B04286D0094EB04208D0094EE4
:10138800B04207D0084EB04200D17AE705267BE785
:10139800012679E7022677E7F0BDC046001802402B
:1013A8000004005000080050000C0050002A01D032
:1013B800816170478162FCE710B5104A13681049D3
:1013C8000B400343136080239B00984201D0002008
:1013D80010BD0C4B1B685800C01840000A49FEF7A6
:1013E8008BFE0130054B5B695B0503D5002803D0F4
:1013F8000138F7E70020EBE70320E9E70070004039
:10140800FFF9FFFF0800002040420F0070B50028D8
:1014180011DB8308134EC0339B009D5903242040E1
:10142800C000FF2214008440A54389010A4082407D
:101438002A439A5170BD0F230340083B9B0806338B
:101448009B00094A944663445C6803221040C0002C
:10145800FC3215008540AC4389010A408240224392
:101468005A60E7E700E100E000ED00E00138802382
:101478005B0498420FD2094A50600948036A1B026C
:101488001B0AC02109060B4303620023936007333C
:101498001360002070470120FCE7C04610E000E020
:1014A80000ED00E010B50400114B1978002901D1B6
:1014B800012010BDFA208000FEF71EFE01000D4B32
:1014C8001868FEF719FEFFF7D1FF00280DD1032C8D
:1014D80001D90120EDE70130002221004042FFF749
:1014E80095FF054B1C600020E3E70120E1E7C046BB
:1014F80000000020080000200400002010B5084A61
:10150800116880235B000B4313600020FFF7CAFFBC
:10151800041E02D00124200010BDFEF7ABFFFAE73D
:1015280000200240034B1B78034A11685B181360C4
:101538007047C0460000002028000020014B1868B2
:101548007047C0462800002070B5041E00D178E01E
:10155800436A002B07D10533FF3342689A4205D00E
:101568000023C36102E00023036143610023A362F7
:101578005D33E35C002B5AD05D230222E2542268DB
:10158800136840218B431360E368E022D200934242
:1015980054D90022F02109018B4205D0E021C9006D
:1015A8008B4201D00023A36282235B0061680B4059
:1015B80084210902A06801400B43022120690140EF
:1015C8000B43012160690840034380208000A5691E
:1015D800284003433820E569284003438020256AD2
:1015E8002840034380208001A56A284003432068DF
:1015F8000360608B042303401020656A284003437E
:101608000820656B28400343F0200001E568284066
:1016180003432068134343602268D3690A480340A0
:10162800D361002323665D33E154002070BD5C3331
:101638000022E254200000F0F7FB9DE780225201CF
:10164800A8E70120F2E7C046FFF7FFFF30B5EFF348
:101658001084012282F3108801680B68124D2B4018
:101668000B6084F31088EFF3108182F3108802680E
:1016780093680E4C2340936081F31088C36E012B4E
:1016880006D08C232022C2500023C366436730BD96
:10169800EFF3108183F31088026813681024A343C2
:1016A800136081F31088ECE7DFFEFFFFFEFFFFEF1A
:1016B80010B5040083680269134342691343C26981
:1016C800134301680A686B48024013430B602268A1
:1016D800536869490B40E1680B435360226AA36968
:1016E8001A4321688B686548034013438B6022685E
:1016F800D36A0F218B43616A0B43D3622368604A24
:1017080093420AD05F4A93423ED05F4A93425CD0EC
:101718005E4A934249D010230BE05D4B5A6D032378
:101728001340022B43D02BD8002B42D0012B42D19F
:101738000333E06980221202904248D0042B00D182
:1017480091E07AD8002B00D186E0022B73D1514862
:10175800636A5B00504A995AFEF7CEFC63685B08DF
:10176800C0186168FEF7C8FC0200103A4B4B9A4259
:1017780000D97DE023680004000CD860002062E0F6
:10178800032B1AD10533D4E7414B5A6D0C23134070
:10179800082B14D005D8002B13D0042BC9D0102344
:1017A800C7E70C2B0FD1043BC3E70023C1E7022393
:1017B800BFE70023BDE71023BBE71023B9E70223E7
:1017C800B7E70023B5E71023B3E70023B1E7042BFD
:1017D8002ED023D8002B25D0022B1DD12D48636A8B
:1017E8005B002D4A995AFEF787FC400063685B0846
:1017F800C0186168FEF780FC0200103A274B9A4235
:1018080034D882B20F239A434008083B184010434B
:101818002368D860002016E0012014E0082BDED0F1
:10182800012010E0FFF72AFC0028D8D100200AE0A8
:10183800FFF7FCFAF8E7012005E0082B02D1802029
:10184800000285E7012001236A22A352023AA3522B
:1018580000236367A36710BDFFF710FC002800D0C2
:1018680076E70020EFE7FFF7E1FAF7E70120EAE77C
:101878000120E8E7F369FFCFFFCFFFFFFFF4FF1177
:10188800003801400044004000480040004C00403F
:10189800001002400024F40094200008EFFF00002C
:1018A800836A1B0706D5026853682C490B40816B75
:1018B8000B435360836ADB0706D5026853682849DF
:1018C8000B40C16A0B435360836A9B0706D50268C5
:1018D800536824490B40016B0B435360836A5B07D1
:1018E80006D50268536820490B40416B0B4353608F
:1018F800836ADB0606D5026893681C490B40C16BF6
:101908000B439360836A9B0606D50268936818495F
:101918000B40016C0B439360836A5B060BD502682E
:10192800536814490B40416C0B43536080235B039D
:10193800426C9A420AD0836A1B0606D5026853682D
:101948000D490B40C16C0B435360704702685368E4
:101958000A490B40816C0B435360ECE7FF7FFFFFA4
:10196800FFFFFDFFFFFFFEFFFFFFFBFFFFEFFFFF96
:10197800FFDFFFFFFFFFEFFFFFFFF7FFFFFF9FFF07
:10198800F8B5CE46474680B506000D0017009946C3
:10199800089B98463368DC692C40641B63425C41B1
:1019A800BC4233D143460133F4D0FFF7C7FD4B4661
:1019B800C01A40452FD84346002B2ED033681A68EA
:1019C8005207E7D5802DE5D0402DE3D0DA6912071C
:1019D80010D4DA691205DDD5802212011A623000AE
:1019E800FFF734FE90232022F2500C3B0022F254E1
:1019F80003200CE008241C623000FFF727FE902328
:101A0800F4500C3B0022F254012000E00020C0BC3E
:101A1800B946B046F8BD0320F9E70320F7E7000010
:101A280030B583B0040090230022C250FFF786FD32
:101A3800050022681268130710D423681B685B0727
:101A48002BD420238822A3500432A3500023E3661A
:101A58002367083AA354002003B030BD8021234BEC
:101A680000930300002289032000FFF789FF002864
:101A7800E3D0EFF31081012383F310882268136801
:101A880080208343136081F3108888232022E2504A
:101A9800043B0022E2547D38DEE78021134B00939B
:101AA8002B000022C9032000FFF76AFF0028C8D0D6
:101AB800EFF31080012282F3108821680B680C4D27
:101AC8002B400B6080F31088EFF3108082F31088AE
:101AD80021688B6893438B6080F310888C231F32B6
:101AE800E250083B0022E2540320B5E7FFFFFF0164
:101AF800DFFEFFFF10B5041E30D08823C358002B2B
:101B080022D088232422E2502268136801218B43C3
:101B18001360A36A002B1DD12000FFF7C9FD01281F
:101B280011D0226853680E490B40536022689368AD
:101B38002A218B4393602268136829390B43136069
:101B48002000FFF76DFF10BD84330022C25400F05F
:101B5800F9F9D6E72000FFF7A3FEDDE70120F2E759
:101B6800FFB7FFFFF8B50400436E002B05D1013322
:101B78006A228352023A8352F8BD026895686D0E54
:101B880007231D409268520F1340084FF85CC000AD
:101B9800074EF15CFEF73AFB6A23E052785DC0001D
:101BA800715DFEF733FB6823E052E5E7B4200008D7
:101BB800AC20000870B58423C35C012B15D08424A5
:101BC80001260655882524234351026813681168A5
:101BD800B1431160064A13400022426601680B6057
:101BE800202343510255002070BD0220FCE7C04667
:101BF800FFFFFFDFF8B504000A008423C35C012B54
:101C08001BD084250120605588262423A3512368EE
:101C18001F6819688143196020688368DB00D90848
:101C2800114381602000FFF79DFF23681F60202378
:101C3800A351002363550020F8BD0220FCE70000F3
:101C4800F8B504000B008422825C012A1BD084258D
:101C58000120605588262422A2512268176811683D
:101C680081431160226891680848014019439160D6
:101C78002000FFF777FF23681F602023A35100236C
:101C880063550020F8BD0220FCE7C046FFFFFFF1C6
:101C980070470000F0B58BB01422002105A800F0B1
:101CA800E1F9194B596B042211435963596B0A40E6
:101CB8000192019A5A6B202632435A635A6B32407A
:101CC8000292029A5A6B01252A435A635A6B2A4098
:101CD8000392039A5A6B022422435A635B6B234094
:101CE8000493049BA027FF05002220213800FFF75A
:101CF8005DFB0596069500230793089405A938000F
:101D0800FFF798FA0BB0F0BD0010024000B585B09F
:101D18000C22002101A800F0A5F91A481A4B03600B
:101D28008023DB05436000238360C36003610422D2
:101D38004261037643768376033AC2611F32835445
:101D4800436283620C3283540363436383631032B8
:101D58008354C364FEF7A6FB00280CD1012301932A
:101D680000230293039301A90648FEF7BDFC00284F
:101D780004D105B000BDFEF735FBEFE7FEF732FBF7
:101D8800F7E7C0462C0000200024014010B588B0B9
:101D980004001422002103A800F064F92268104B03
:101DA8009A4201D008B010BD0E4B196C8020400338
:101DB800014319641A6C02400192019A596B01227D
:101DC800114359635B6B13400293029B03920323F5
:101DD8000493A02003A9C005FFF72CFAE2E7C04648
:101DE800002401400010024010B50D480D4B03605F
:101DF800002343608360E022D200C2600361436134
:101E080083610362436283620722C262036343639E
:101E1800FFF79AFB002800D110BDFEF7E3FAFBE7B5
:101E2800900000200038004070B588B004001422EB
:101E3800002103A800F016F92268214B9A4201D02C
:101E480008B070BD1F4BD96B8020C0010143D96316
:101E5800DA6B02400092009A596B042211435963CD
:101E6800596B0A400192019A5A6B02252A435A6318
:101E78005B6B2B400293029B0C23039304950B3B53
:101E8800079303A91048FFF7D5F98023DB000393D4
:101E98000495002405940694052307930B4E03A983
:101EA8003000FFF7C7F980235B010393049505947D
:101EB8000694079403A93000FFF7BCF9C0E7C046B1
:101EC8000038004000100240000800500004005094
:101ED80010B51A481A4B0360E1235B024360802364
:101EE8005B0583600023C36003610C224261836148
:101EF800C361036243628362FFF7FCFD002811D1CE
:101F080000210E48FFF776FE00280ED100210B486D
:101F1800FFF796FE00280BD10848FFF74BFE002874
:101F280009D110BDFEF75EFAEAE7FEF75BFAEDE7C6
:101F3800FEF758FAF0E7FEF755FAF2E7F40000204A
:101F48000044004010B58EB004001422002109A8F6
:101F580000F088F81C22002102A800F083F822680B
:101F6800174B9A4201D00EB010BD0223029302A86B
:101F7800FFF798F800281FD1124BD96B80208002F8
:101F88000143D963DA6B02400092009A596B01222F
:101F9800114359635B6B13400193019B0C23099315
:101FA8000A3B0A930B9200230C930D92A02009A9D7
:101FB800C005FFF73FF9D6E7FEF714FADCE7C0469D
:101FC80000440040001002400D488546FFF760FEBF
:101FD8000C480D490D4A002302E0D458C45004337C
:101FE800C4188C42F9D30A4A0A4C002301E0136052
:101FF8000432A242FBD300F011F8FEF725FAFEE7FF
:1020080000900020000000200C000020242100087F
:102018000C00002088010020FEE7000070B50026B3
:102028000C4D0D4C641BA410A64209D1002600F0EB
:1020380021F80A4D0A4C641BA410A64205D170BDB4
:10204800B300EB5898470136EEE7B300EB589847D2
:102058000136F2E71C2100081C2100081C21000899
:102068002021000803008218934200D1704719709C
:102078000133F9E7F8B5C046F8BC08BC9E4670477E
:0C208800F8B5C046F8BC08BC9E46704786
:10209400010002000400060008000A000C00100001
:1020A400200040008000000108040204080101012E
:1020B400010101030701000000000000000000000E
:1020C400000000000000000000000000000000000C
:1020D40000000000000000000100000002000000F9
:1020E40003000000040000000600000007000000D8
:1020F40008000000090000000000000000000000CB
:1021040000000000000000000100000002000000C8
:082114000300000004000000BC
:04211C00E1000008D6
:04212000B9000008FA
:0C21240001000000040000000024F40092
:0400000508001FD1FF
:00000001FF
