:020000040800F2
:100000000090002011290008F5060008F7060008F6
:1000100000000000000000000000000000000000E0
:10002000000000000000000000000000F9060008C9
:100030000000000000000000FB060008FD060008AC
:1000400061290008000000006129000861290008FA
:100050006129000861290008612900086129000858
:100060000000000005070008612900086129000858
:100070001507000861290008612900080000000038
:100080006129000861290008612900086129000828
:100090006129000861290008612900086129000818
:1000A0006129000861290008612900086129000808
:0800B000612900086129000824
:1000B80010B5064C2378002B07D1054B002B02D036
:1000C800044800E000BF0123237010BD7000002029
:1000D800000000009C320008044B10B5002B03D030
:1000E8000349044800E000BF10BDC04600000000FE
:1000F800740000209C3200080023C25C0133002AEF
:10010800FBD1581E7047000003B4714649084000EF
:100118004900095E49008E4403BC70470022430829
:100128008B4274D303098B425FD3030A8B4244D3B7
:10013800030B8B4228D3030C8B420DD3FF220902F9
:1001480012BA030C8B4202D31212090265D0030BB8
:100158008B4219D300E0090AC30B8B4201D3CB03AE
:10016800C01A5241830B8B4201D38B03C01A5241F0
:10017800430B8B4201D34B03C01A5241030B8B42F2
:1001880001D30B03C01A5241C30A8B4201D3CB02DD
:10019800C01A5241830A8B4201D38B02C01A5241C2
:1001A800430A8B4201D34B02C01A5241030A8B42C5
:1001B80001D30B02C01A5241CDD2C3098B4201D3DD
:1001C800CB01C01A524183098B4201D38B01C01A5B
:1001D800524143098B4201D34B01C01A52410309D2
:1001E8008B4201D30B01C01A5241C3088B4201D381
:1001F800CB00C01A524183088B4201D38B00C01A2E
:10020800524143088B4201D34B00C01A5241411A54
:1002180000D20146524110467047FFE701B5002061
:1002280000F0F0F802BDC0460029F7D076E7704725
:1002380003460B437FD4002243088B4274D303093F
:100248008B425FD3030A8B4244D3030B8B4228D3E0
:10025800030C8B420DD3FF22090212BA030C8B4206
:1002680002D31212090265D0030B8B4219D300E0A6
:10027800090AC30B8B4201D3CB03C01A5241830B2B
:100288008B4201D38B03C01A5241430B8B4201D3DB
:100298004B03C01A5241030B8B4201D30B03C01A04
:1002A8005241C30A8B4201D3CB02C01A5241830A7E
:1002B8008B4201D38B02C01A5241430A8B4201D3AD
:1002C8004B02C01A5241030A8B4201D30B02C01AD7
:1002D8005241CDD2C3098B4201D3CB01C01A52413E
:1002E80083098B4201D38B01C01A524143098B42C7
:1002F80001D34B01C01A524103098B4201D30B01B0
:10030800C01A5241C3088B4201D3CB00C01A5241D4
:1003180083088B4201D38B00C01A524143088B4299
:1003280001D34B00C01A5241411A00D20146524132
:10033800104670475DE0CA0F00D04942031000D351
:100348004042534000229C4603098B422DD3030AA6
:100358008B4212D3FC22890112BA030A8B420CD3B6
:10036800890192118B4208D3890192118B4204D3DF
:1003780089013AD0921100E08909C3098B4201D35F
:10038800CB01C01A524183098B4201D38B01C01A99
:10039800524143098B4201D34B01C01A5241030910
:1003A8008B4201D30B01C01A5241C3088B4201D3BF
:1003B800CB00C01A524183088B4201D38B00C01A6C
:1003C8005241D9D243088B4201D34B00C01A524143
:1003D800411A00D20146634652415B10104601D3D0
:1003E8004042002B00D54942704763465B1000D35A
:1003F800404201B5002000F005F802BD0029F8D000
:1004080016E770477047C046F0B58BB0142200213C
:1004180005A802F0CDFA194B596B04221143596310
:10042800596B0A400192019A5A6B202632435A634B
:100438005A6B32400292029A5A6B01252A435A6338
:100448005A6B2A400392039A5A6B022422435A6336
:100458005B6B23400493049BA027FF050022202107
:10046800380001F0E3FB05960695002307930894EE
:1004780005A9380001F01EFB0BB0F0BD00100240CA
:1004880000B583B0094A916B012319439163926BBC
:1004980013400193019B00220021092001F056FD21
:1004A800092001F083FD03B000BDC04600100240E2
:1004B800014B01221A7070479000002072B6FEE7C7
:1004C80000B585B00C22002101A802F071FA1B4882
:1004D8001B4B03608023DB02436000238360C360FF
:1004E8008022920302610422426103764376837676
:1004F800023AC2611E328354436283620C328354CF
:100508000363253A4263826335328354C36400F03F
:100518003FFA00280DD101230193033302930023EE
:10052800039301A9054800F057FC002803D105B042
:1005380000BDFFF7C3FFFFF7C1FFC04694000020CE
:100548000024014010B50D480D4B036000234360A3
:100558008360E022D200C260036143618361036269
:10056800436283620722C2620363436301F0AAFD08
:10057800002800D110BDFFF7A1FFC046540100209C
:100588000038004010B51748174B0360E1235B02A1
:10059800436000238360C36003610C22426183616E
:1005A800C36103624362836202F0E0F8002811D15C
:1005B80000210C4802F05AF900280DD10021094801
:1005C80002F07AF9002809D1064802F02FF900282C
:1005D80006D110BDFFF772FFFFF770FFFFF76EFF40
:1005E800FFF76CFFB80100200044004000B593B04D
:1005F8003422002105A802F0DBF91022002101A80D
:1006080002F0D6F98020800001F076FC02230593E1
:10061800FE3308930023099340220A920C9305A8FD
:1006280000F0F2FD00280DD1072301930023029367
:1006380003930493002101A801F094F8002803D142
:1006480013B000BDFFF73AFFFFF738FF10B501F010
:1006580001FDFFF7CBFFFFF7D7FEFFF711FFFFF70D
:100668002FFFFFF76FFFFFF78DFF0222174918488A
:1006780000F068FD23E0154A107816490880517883
:10068800154A11800133DBB2114AD2699342F2D381
:10069800114B1B880F4A1288104C1149200002F098
:1006A8008FF92000FFF728FD012382B25B42210069
:1006B8000C4801F072FFFA20800001F0F1FC0A4BAF
:1006C8001B78002BFBD00023DEE7C046B0020020D9
:1006D800940000208C0000208E0000204C02002096
:1006E800B4320008B801002090000020FEE7FEE7C1
:1006F8007047704710B501F0C1FC10BD10B5024835
:1007080001F094FB10BDC046F800002010B5024867
:1007180000F0B6FA10BDC0469400002082B00A4B23
:10072800196C012211431964196C0A400092009A4D
:10073800DA6B802149050A43DA63DB6B0B400193CE
:10074800019B02B07047C0460010024030B58FB020
:1007580004001422002109A802F02AF91C22002111
:1007680002A802F025F9284B22689A4201D00FB05E
:1007780030BD8023DB01029302A801F0D3F80028E2
:100788003CD1224B196C80204003014319641A6C38
:1007980002400092009A596B0122114359635B6B26
:1007A8001A400192019B032309930A9300250B9594
:1007B800A02009A9C00501F07DF91548154B036073
:1007C800052343608560C5607B33036180334361E3
:1007D8008023DB0083612023C361056201F080FA76
:1007E80000280ED10A4B23659C62002201210C20AF
:1007F80001F0ACFB0C2001F0D9FBB8E7FFF75EFE77
:10080800BFE7FFF75BFEEDE7002401400010024060
:10081800F80000200800024070B588B004001422D7
:10082800002103A802F0C4F82268214B9A4201D0A3
:1008380008B070BD1F4BD96B8020C0010143D9633C
:10084800DA6B02400092009A596B042211435963F3
:10085800596B0A400192019A5A6B02252A435A633E
:100868005B6B2B400293029B0C23039304950B3B79
:10087800079303A9104801F01DF98023DB000393B7
:100888000495002405940694052307930B4E03A9A9
:10089800300001F00FF980235B0103930495059460
:1008A8000694079403A9300001F004F9C0E7C04694
:1008B80000380040001002400008005000040050BA
:1008C80010B58EB004001422002109A802F070F8B7
:1008D8001C22002102A802F06BF82268174B9A42EA
:1008E80001D00EB010BD0223029302A801F01AF83D
:1008F80000281FD1124BD96B802080020143D96395
:10090800DA6B02400092009A596B01221143596335
:100918005B6B13400193019B0C2309930A3B0A93D9
:100928000B9200230C930D92A02009A9C00501F099
:10093800C1F8D6E7FFF7C2FDDCE7C0460044004037
:10094800001002407047000010B503000C4A0D4922
:10095800521A0D490968002907D00B490868C318BD
:10096800934206D8084A136010BD07490748086033
:10097800F3E701F0F3FF0C23036001204042F3E7A3
:100988000090002000040000B4020020D0020020E3
:1009980030B583B0040000230193002800D106E19C
:1009A800836D002B13D023689A68D2001CD49A68F0
:1009B80080491140802252050A439A607E4B18688C
:1009C8007E49FFF7ABFB01304000019009E0FFF7DB
:1009D800BDFE0023E3655422A354E4E7019B013BD9
:1009E8000193019B002BF9D123689A68D20000D5A6
:1009F8009DE0A26D10210A43A265E26D0F390A43FA
:100A0800E26501209A6804210D001540114200D0CA
:100A18000125A26DD20600D5C2E0002D00D0BFE0AE
:100A2800A26D67490A400631FF310A43A2659A68F8
:100A3800D20752D4227E9203A1680A43617EC90379
:100A48000A43A57E69030A43216B002901D080214E
:100A580049010A43E1680A432169002969DB8021C9
:100A680089030A432C21615C49000A432021615C07
:100A7800012961D0616A002905D0E0256D0029406F
:100A8800A56A29430A43D9684E4D29400A43DA60CA
:100A980063689B0F9B07E26C1A433C21615C012948
:100AA80059D021680B69484D2B4013430B6163688B
:100AB800C0221206934210D08022D20593420CD055
:100AC80080221206934208D040490A68404D2A40C5
:100AD800F025AD032B4013430B60226853690721AF
:100AE8008B43616B0B43536121684B6970229343BD
:100AF800A26B120113434B612369002B35D1226885
:100B0800916A103B0B43936223685A690723134089
:100B1800626B9A423BD0A36D12229343023A13436D
:100B2800A365E36D0F3A1343E36501203DE0002020
:100B380068E74900490894E7002D03D1802149025C
:100B48000A4397E7A16D20252943A165E16D1F3D63
:100B58002943E1658EE7216C0B43616C0B43A16C63
:100B68000B43134301221A439BE7802292039342CB
:100B7800CAD121688B6AE369013B9B001C221A4099
:100B880010235B429340226E13438B62BCE7002321
:100B9800E365A36D03229343023A1343A36504E07C
:100BA800A36D10221343A365012003B030BD0120BB
:100BB800FBE7C046E8FFFF6F00000020400D030080
:100BC800FDFEFFFF0102DEFF02FCFF1F08270140B8
:100BD800FFFFC3FF704710B5806AFFF7FBFF10BD2A
:100BE8007047704710B5806A836D40221343836550
:100BF800C36D3C3A1343C365FFF7F3FF10BD000014
:100C080010B50300806A826D502111422AD1826D8D
:100C180080239B00134383650368D968C0221201AF
:100C2800114213D1827E002A10D11A6812070DD5FD
:100C38009A6852070DD45A680C218A435A60836D0A
:100C48000E4A13400432FF3213438365FFF730FC2A
:100C580010BD836D202213438365C36D1F3A134370
:100C6800C365F3E7826DD20604D4026D526B180097
:100C78009047EDE7FFF7B5FFEAE7C046FEFEFFFF46
:100C880070B5040003681E685D68B3070FD5AB072D
:100C98000DD5836DDB0604D4826D80231B011343BD
:100CA8008365200000F0AEFA236802221A607307F9
:100CB80001D56B0703D4330729D52B0727D5A36D97
:100CC800DB0604D4A26D80239B001343A36523682D
:100CD800D968C0221201114213D1A27E002A10D174
:100CE8001A6812070DD59A6852073BD45A680C2126
:100CF8008A435A60A36D374A13400432FF321343C4
:100D0800A3652000FFF7D4FB23680C221A60330682
:100D180001D52B062FD4F30501D5EB0537D4B30540
:100D280001D5AB0540D4F30617D5EB0615D5236BD3
:100D3800002B03D02368DB689B070BD0A26D8023B0
:100D4800DB001343A365E36D02221343E365200030
:100D5800FFF747FF236810221A60B30401D5AB04DC
:100D68002FD470BDA36D20221343A365E36D1F3AF2
:100D78001343E365C5E7A26D80235B021343A365B4
:100D88002000FFF72DFF236880221A60C3E7A26DB9
:100D980080239B021343A365200000F031FA2368E7
:100DA800802252001A60BAE7A26D8023DB02134347
:100DB800A365200000F025FA2368802292001A60BB
:100DC800B1E7200000F01FFA2368802292011A6020
:100DD800C7E7C046FEFEFFFFF0B583B0040000235E
:100DE800019305695433C35C012B00D130E15423CE
:100DF8000122C25400688368033216001E401A425A
:100E080009D0A36D1C321343A3650120542300228B
:100E1800E25403B0F0BD4B68022B00D1D6E080222B
:100E28001206954226D08B4A954223D01F221340A2
:100E3800103A9A40256E95432A000D686F032FD10A
:100E4800AD0E1F262E409E40164326664D68AB0801
:100E58000133E269934213D8826A1F231D40103B75
:100E68001E00AE40B2430E68B60E3340AB4013438B
:100E7800836205E0826A0B685B035B0B1343836242
:100E8800206842690B681B029A438D682B40724D9B
:100E98002B40134343610B68002B4FDB0020B5E761
:100EA800EF07D0D4AE0727D46E0727D42E0727D450
:100EB800EE0627D4AE0627D46E0627D42E0627D4EE
:100EC800EE0527D4AE0527D46E0527D42E0527D4E2
:100ED800EE0427D4AE0427D46E0427D42E0427D4D6
:100EE800EE0327D4AE0327D48027FF022E003E400E
:100EF8003D42A8D01226A6E70126A4E70226A2E7CB
:100F08000326A0E704269EE705269CE706269AE71F
:100F1800072698E7082696E7092694E70A2692E71F
:100F28000B2690E70C268EE70D268CE70E268AE71F
:100F38000F2688E7102686E7112684E7474A1168B6
:100F4800E02252040A404648834207D0454883427B
:100F580022D0454883422CD0002057E70802F5D418
:100F680080231B041A433D490B68404803401A4339
:100F78000A603F4B18683F49FFF7D0F8013043003B
:100F88001B189B00019302E0019B013B0193019B0D
:100F9800002BF9D1002039E7C801DAD480235B049B
:100FA8001A432E490B68314803401A430A6000204F
:100FB8002CE74B024AD48023DB031A4327490B68EA
:100FC8002A4803401A430A6000201FE780231B06B3
:100FD8009D4202D01F4B9D4205D1826A0B685B037C
:100FE8005B0B9A4382620B68002B01DB00200DE744
:100FF8001A4A12681A498B4207D01A498B420FD0F5
:1010080019498B4217D0002000E7A0235B041A403F
:1010180012490B68154803401A430A600020F5E698
:10102800C0231B041A400D490B68104803401A439B
:101038000A600020EAE6C0235B041A4007490B68EF
:101048000A4803401A430A600020DFE60020DDE674
:101058000220DEE60400008000FFFF0708270140A9
:10106800001000B0004000B8002000B4FFFF3FFEB1
:1010780000000020400D030030B583B004000023B9
:10108800019303689A68D2074FD49968284A114295
:1010980011D19A6827490A4001210A439A60264BD0
:1010A8001B681B0217D5254B18682549FFF736F82A
:1010B800013001900CE0836D102213438365C36DEA
:1010C8000F3A1343C365012030E0019B013B0193B4
:1010D800019B002BF9D1637E012B01D1002025E073
:1010E80000F0D8FF050023681A68D2071BD49A6855
:1010F800D20705D49A680F490A4001210A439A6029
:1011080000F0C8FF401B0228EDD923681B68DB07E5
:10111800E9D4A36D10221343A365E36D0F3A13437B
:10112800E365012002E0002000E0002003B030BDAC
:1011380017000080E8FFFF7F08270140000000201B
:10114800400D030070B504000D00160003689A688E
:10115800520747D45422825C012A45D001225421E7
:101168004254D9680A420DD19A68D20705D59A68BF
:101178001E490A4002210A439A602268D368012165
:101188000B43D3602000FFF777FF00282BD1A36D16
:10119800174A1A4080235B001343A3650023E365C5
:1011A800226D1449D162226D13491163226D1349CE
:1011B800516322681C2111605422A3542268536889
:1011C8000C390B4353602168403133002A00206DED
:1011D80000F0DEFD2268936804490B4004210B43AC
:1011E800936000E0022070BD0220FCE7E8FFFF7F6B
:1011F800FEF0FFFF090C0008DF0B0008ED0B0008EC
:10120800704770477047704770B582B0041E00D1B0
:1012180029E20368DB0739D5C14A916838230B40B6
:10122800D16803220A40102B26D0082B26D06368E9
:101238008022520293427FD0A022D202934200D150
:1012480081E0B74B1A68B7490A401A601A68B6496C
:101258000A401A606368002B00D180E000F01AFF92
:101268000500AF4B1B689B0310D400F013FF401B15
:101278006428F6D90320F7E1032AD6D1A84B1B68C6
:101288009B0303D56368002B00D1EFE123689B071C
:1012980031D5A34A936838210B40D16803220A400C
:1012A800102B6AD0002B6BD19D4A1268520503D5CA
:1012B800E268002A00D1DBE1994842689B490A406C
:1012C800616909020A434260002B0DD103689849FD
:1012D8000B4021690B4303600368DB0A07221A40AD
:1012E800944BD340944A1360944B186800F086FEE0
:1012F800002800D0BEE123681B0700D481E0884B9A
:101308009A6838231340182B73D0A369002B00D197
:10131800B4E0834A136E01210B43136600F0BAFE52
:1013280005007F4B1B6E9B076BD400F0B3FE401B80
:101338000228F6D9032097E1794A116880235B02D5
:101348000B43136086E7764B19688022D2020A4362
:101358001A601968802252020A431A607AE700F07C
:1013680099FE05006E4B1B689B038FD500F092FE1B
:10137800401B6428F6D9032076E1022A92D193E72C
:10138800E368002B22D0664A136869490B4021693B
:101398000B431360116880235B000B43136000F05C
:1013A80079FE05005E4B1B685B0506D400F072FEF3
:1013B800401B0228F6D9032056E159494B685B4A7D
:1013C80013406269120213434B6094E7544A13684E
:1013D8005B490B40136000F05DFE0500504B1B6835
:1013E8005B0588D500F056FE401B0228F6D903207D
:1013F8003AE14B4B1B6E9B0703D5A369002B00D129
:101408003AE123685B0700D4A2E0454B9A68382389
:101418001340202B45D0424BDB6BDB004AD4404ABB
:10142800D16B802040050143D163D36B0340019306
:10143800019B0125434B1B68DB053DD5A368012BA8
:101448004ED0052B52D0364BDA6D01218A43DA652E
:10145800DA6D03318A43DA65A368002B50D000F0B7
:1014680019FE06002E4BDB6D9B076FD400F012FEB1
:10147800801B354B9842F5D90320F5E0284A136EB6
:1014880001218B43136600F005FE0500244B1B6EFB
:101498009B07B6D500F0FEFD401B0228F6D90320B5
:1014A800E2E01F4BDB6D9B0752D5A368002B4FD1A1
:1014B8000120D9E00025BDE7224A116880235B009E
:1014C8000B43136000F0E6FD06001E4B1B68DB05AE
:1014D800B4D400F0DFFD801B0228F6D90320C3E056
:1014E8000F4AD36D01210B43D365B5E70C4BDA6D79
:1014F80004210A43DA65DA6D03390A43DA65ABE792
:1015080000F0C8FD0600064BDB6D9B071ED500F0FA
:10151800C1FD801B0C4B9842F5D90320A4E0C046BE
:1015280000100240FFFFFEFFFFFFFBFFFF80FFFFF1
:10153800FFC7FFFF0024F40000000020080000207F
:10154800FFFEFFFF0070004088130000012D1ED031
:10155800E369002B00D191E04F4A916838220A4094
:10156800102A5ED0022B18D04B4A13684B490B4007
:10157800136000F08FFD0400474B1B689B0149D5A1
:1015880000F088FD001B0228F6D903206CE0424ACF
:10159800D36B43490B40D363DAE73F4A13683F49AB
:1015A8000B40136000F076FD05003B4B1B689B0168
:1015B80006D500F06FFD401B0228F6D9032053E042
:1015C800354AD36837491940236A606A0343A06AD9
:1015D80000020343E06A0343206B03430B43D360D9
:1015E800116880235B040B431360D16880235B057B
:1015F8000B43D36000F04EFD0400274B1B689B0192
:1016080006D400F047FD001B0228F6D903202BE082
:10161800002029E0204AD36823490B40D3600020EA
:1016280022E0012B2CD01C4BDA6803231340216ADB
:101638008B4227D170231340616A8B4224D1FE214B
:10164800C9011140A36A1B0299421FD1F8239B03C9
:101658001340E16A8B421BD1520F5207236B9A4207
:1016680018D1002000E0012002B070BD0120FBE786
:101678000120F9E70120F7E70120F5E70020F3E76B
:101688000120F1E70120EFE70120EDE70120EBE77A
:101698000120E9E70120E7E700100240FFFFFFFE15
:1016A800FFFFFFEF8C80C11FFCFFFEEF10B52A4B38
:1016B8009B6838221A4207D1274B1A68D20A072397
:1016C80013402648D84010BD234B9A68382313404E
:1016D800082B3BD0204B9A6838231340102B0DD091
:1016E8001D4B9A6838231340202B31D01A4B9A6827
:1016F80038231340182B26D00020E4E7164AD16877
:101708000D3B0B40D2681209072111400131032B10
:101718000FD01248FEF702FD0F4BDA68120A7F233A
:10172800134058430C4BD968490F0131FEF7F6FCBA
:10173800C9E70B48FEF7F2FC074BDA68120A7F2369
:1017480013405843EEE7FA20C001BCE70448BAE763
:1017580080200002B7E7C046001002400024F400D1
:1017680000127A0070B504000D00002800D1AAE02C
:10177800574B1A68072313408B4221D323689A07D3
:101788000ED55B0705D5534A9168E023DB010B436F
:101798009360504A936850490B40A1680B4393608B
:1017A8002368DB0754D56368012B20D0022B3BD07C
:1017B800002B3FD1474A126852051CD401206AE029
:1017C800434A136807218B432B43136000F062FCE4
:1017D80006003F4B1A6807231340AB42CED000F0F7
:1017E80059FC801B3D4A9042F3D9032053E0394A03
:1017F8001268920369D537498A68072082431343E0
:101808008B6000F047FC0600324B9B6838221A4078
:101818006368DB009A421BD000F03CFC801B2F4B16
:101828009842F1D9032036E02A4A12689201E2D49C
:10183800012030E0032B05D0264AD26D9207DAD476
:10184800012028E0234A126E9207D4D4012022E016
:101858001F4B1A6807231340AB421DD823685B0748
:1018680006D51C4A93681E490B40E1680B439360F8
:10187800FFF71CFF174B9A68120A0F2313409B00AF
:10188800184A9A581F231340D840174B1860174B13
:10189800186800F0B3FB70BD0D4A136807218B432D
:1018A8002B43136000F0F6FB0600094B1A68072368
:1018B8001340AB42D2D000F0EDFB801B074B98429F
:1018C800F3D90320E7E70120E5E70120E3E7C04675
:1018D8000020024000100240FFF0FFFF88130000C4
:1018E800FF8FFFFFCC320008000000200800002016
:1018F800014B18687047C0460000002010B5FFF77C
:10190800F7FF064B9A68120B072313409B00044A03
:101918009A581F231340D84010BDC04600100240FB
:101928000C330008F0B583B0040003689B0362D54C
:10193800584BDB6BDB001ED4564AD16B8020400528
:101948000143D163D36B03400193019B0126524AA3
:10195800116880235B000B43136000F09BFB0500BC
:101968004D4B1B68DB0508D400F094FB401B022894
:10197800F6D9032502E00026E9E70025002D23D14A
:10198800444BD96DC02292000B001340114210D075
:10199800A2699A420DD03F4AD36D40490B40D06DA1
:1019A800802149020143D165D16D3D480140D1658F
:1019B800D365DB0710D4002D06D1364AD36D3749DD
:1019C8000B40A1690B43D365012E15D1314AD36B66
:1019D80034490B40D3630FE000F05CFB07002D4B4C
:1019E800DB6D9B07E7D400F055FBC01B2E4B9842DC
:1019F800F5D90325DFE700252368DB0706D5254A47
:101A0800536D03218B4361680B43536523689B0720
:101A180006D5204A536D0C218B43A1680B435365AF
:101A280023689B0606D51B4A536D20490B40E16885
:101A38000B43536523685B040BD5164A536D9B0013
:101A48009B0861690B4353658023DB0562699A42F1
:101A580011D023681B050BD50E4A536D14490B4052
:101A680021690B43536522698023DB019A4209D01F
:101A7800280003B0F0BD074AD16880235B020B43FE
:101A8800D360E6E7034AD16880235B020B43D36047
:101A9800EEE7C0460010024000700040FFFCFFFF68
:101AA800FFFFFEFFFFFFFFEF88130000FFCFFFFFE0
:101AB800FF3FFFFFF0B500235AE084685F0003266C
:101AC800BE40B4432600CC68BC40344384604468BC
:101AD80094434A681609012232409A4022434260E0
:101AE80056E0DC080834A400265805321A40920053
:101AF8000F279740BE430F6997403A003243225060
:101B08005AE0032600E00026A64034003C43434E3A
:101B18001832920094513468EA432600AE434F6865
:101B2800FF0201D52C4326003C4C26606468260041
:101B380016404F68BF0201D52C432600374C66601B
:101B48008426A459260016404F68BF0301D52C43AC
:101B58002600324C8427E6518026A45922404E683C
:101B6800F60301D52A0022432C4D80242A51013343
:101B78000C682200DA404FD001229A402500154017
:101B88001442F4D003244E683440013C012C94D90B
:101B980003224C682240032A09D0C2685E0003244D
:101BA800B440A24314008A68B2402243C2600322B0
:101BB8004C682240022A94D004685E000322170071
:101BC800B740BC434F683A40B24022430260C0224B
:101BD80092024C681442CAD09A0814001834A4001F
:101BE8000E4EA75903241C40E4000F26A640B74315
:101BF800A026F605B04286D0094EB04208D0094E5C
:101C0800B04207D0084EB04200D17AE705267BE7FC
:101C1800012679E7022677E7F0BDC04600180240A2
:101C28000004005000080050000C0050002A01D0A9
:101C3800816170478162FCE7F0B5846CC56C6560B2
:101C4800046D002C02D0446D856D65600B4F7C6877
:101C58001C26056C2E400125B5402C437C60046889
:101C680063608368102B04D0036899600368DA60A6
:101C7800F0BD03689A600368D960F9E70000024084
:101C880010B50400036C9B08094A944663449B0002
:101C98004364FF202368184008381421FEF73EFAF1
:101CA800044BA3641F2318401E3B8340E36410BD0C
:101CB80000820010800802403F2342681340064A11
:101CC8009A1892000265054A4265013B03221A40B0
:101CD80001239340836570473F820010400902400A
:101CE80070B5041E4DD00568274BE8181421FEF77F
:101CF80015FA8000206425230222E2542B68234A27
:101D080013402B6021680A68A368E06803432069D0
:101D1800034360690343A0690343E0690343206AFE
:101D2800034313430B602000FFF7AAFF8023DB0166
:101D3800A2689A4218D0626C3F2361680B40136016
:101D4800A36CE26C5A606368013B032B0FD9002334
:101D580023656365A3650023E36325220121A1545C
:101D6800013AA354002070BD00236360E3E720001C
:101D7800FFF7A2FF236D00221A60636DA26D5A60FF
:101D8800E9E70120EFE7C046F8FFFDBF0F80FFFF3E
:101D980070B504002420205C012845D024200125AA
:101DA80025540130205C012806D08023E3635C3B86
:101DB8000022E254012070BD243001352554002052
:101DC800E063256828680126B04328602000FFF7F3
:101DD80033FF236B002B1CD0226813680E210B43A2
:101DE8001360636C1A68D20304D519688022520004
:101DF8000A431A60236D002B04D019688022520010
:101E08000A431A602268136801210B4313600020FB
:101E1800D1E72268136804218B4313602268136892
:101E280006310B431360DCE70220C4E770B5314B81
:101E38001968046825681C23026C134004229A4020
:101E4800114216D06A0714D523689B0603D4236869
:101E5800042293432360274C63681C21026C1140C1
:101E680004228A4013436360036B002B00D0984719
:101E780070BD02229A4011421CD0AA071AD52368C5
:101E88009B0606D423680A22934323602523093A34
:101E9800C254184C63681C21026C114002228A400B
:101EA8001343636024230022C254C36A002BDFD08B
:101EB8009847DDE708229A401142D9D02B07D7D599
:101EC80023680E22934323600A4C62681C21036C2A
:101ED800194001231D008D402A436260C3632522F7
:101EE800835423330022C254436B002BC0D098473D
:101EF800BEE7C0460000024010B5104A13681049FA
:101F08000B400343136080239B00984201D00020BC
:101F180010BD0C4B1B685800C01840000A49FEF75A
:101F2800FDF80130054B5B695B0503D5002803D03C
:101F38000138F7E70020EBE70320E9E700700040ED
:101F4800FFF9FFFF0000002040420F0070B5002895
:101F580011DB8308134EC0339B009D590324204096
:101F6800C000FF2214008440A54389010A40824032
:101F78002A439A5170BD0F230340083B9B08063340
:101F88009B00094A944663445C6803221040C000E1
:101F9800FC3215008540AC4389010A408240224347
:101FA8005A60E7E700E100E000ED00E0002805DB0B
:101FB8001F2318401E3B8340014A13607047C046E8
:101FC80000E100E0013880235B0498420FD2094AFF
:101FD80050600948036A1B021B0AC02109060B430B
:101FE80003620023936007331360002070470120C9
:101FF800FCE7C04610E000E000ED00E010B504008A
:10200800114B1978002901D1012010BDFA20800058
:10201800FEF784F801000D4B1868FEF77FF8FFF70C
:10202800D1FF00280DD1032C01D90120EDE70130A3
:10203800002221004042FFF789FF054B1C60002069
:10204800E3E70120E1E7C04604000020000000208B
:102058000800002010B5084A116880235B000B4374
:1020680013600020FFF7CAFF041E02D001242000DD
:1020780010BDFEF753FBFAE700200240034B1B7824
:10208800034A11685B1813607047C04604000020BB
:10209800B8020020014B18687047C046B8020020FB
:1020A80070B50400FFF7F6FF0500631C02D0044B6F
:1020B8001B78E418FFF7EEFF401BA042FAD370BD6F
:1020C8000400002070B5041E00D178E0436A002B9C
:1020D80007D10533FF3342689A4205D00023C36114
:1020E80002E00023036143610023A3625D33E35CE4
:1020F800002B5AD05D230222E25422681368402143
:102108008B431360E368E022D200934254D9002243
:10211800F02109018B4205D0E021C9008B4201D092
:102128000023A36282235B0061680B4084210902BB
:10213800A06801400B430221206901400B430121A3
:1021480060690840034380208000A5692840034354
:102158003820E569284003438020256A2840034346
:1021680080208001A56A2840034320680360608BB3
:10217800042303401020656A284003430820656B48
:1021880028400343F0200001E56828400343206805
:10219800134343602268D3690A480340D36100238C
:1021A80023665D33E154002070BD5C330022E254A5
:1021B8002000FEF731FB9DE780225201A8E70120AD
:1021C800F2E7C046FFF7FFFF30B5EFF310840122B6
:1021D80082F3108801680B68124D2B400B6084F362
:1021E8001088EFF3108182F31088026893680E4C10
:1021F8002340936081F31088C36E012B06D08C2393
:102208002022C2500023C366436730BDEFF310811C
:1022180083F31088026813681024A343136081F3C2
:102228001088ECE7DFFEFFFFFEFFFFEF10B50400AC
:1022380083680269134342691343C26913430168FF
:102248000A686B48024013430B6022685368694967
:102258000B40E1680B435360226AA3691A43216863
:102268008B686548034013438B602268D36A0F214B
:102278008B43616A0B43D3622368604A93420AD056
:102288005F4A93423ED05F4A93425CD05E4A934293
:1022980049D010230BE05D4B5A6D03231340022BEA
:1022A80043D02BD8002B42D0012B42D10333E06915
:1022B80080221202904248D0042B00D191E07AD8B3
:1022C800002B00D186E0022B73D15148636A5B0072
:1022D800504A995AFDF722FF63685B08C018616885
:1022E800FDF71CFF0200103A4B4B9A4200D97DE0E3
:1022F80023680004000CD860002062E0032B1AD188
:102308000533D4E7414B5A6D0C231340082B14D0E6
:1023180005D8002B13D0042BC9D01023C7E70C2BEA
:102328000FD1043BC3E70023C1E70223BFE7002323
:10233800BDE71023BBE71023B9E70223B7E7002363
:10234800B5E71023B3E70023B1E7042B2ED023D839
:10235800002B25D0022B1DD12D48636A5B002D4A26
:10236800995AFDF7DBFE400063685B08C018616896
:10237800FDF7D4FE0200103A274B9A4234D882B2B5
:102388000F239A434008083B184010432368D8603D
:10239800002016E0012014E0082BDED0012010E018
:1023A800FFF7ACFA0028D8D100200AE0FFF77EF941
:1023B800F8E7012005E0082B02D18020000285E71C
:1023C800012001236A22A352023AA3520023636721
:1023D800A36710BDFFF792FA002800D076E7002027
:1023E800EFE7FFF763F9F7E70120EAE70120E8E7FD
:1023F800F369FFCFFFCFFFFFFFF4FF110038014063
:102408000044004000480040004C004000100240DA
:102418000024F4002C330008EFFF0000836A1B0738
:1024280006D5026853682C490B40816B0B435360F7
:10243800836ADB0706D50268536828490B40C16ADE
:102448000B435360836A9B0706D502685368244987
:102458000B40016B0B435360836A5B0706D5026828
:10246800536820490B40416B0B435360836ADB067A
:1024780006D5026893681C490B40C16B0B439360F7
:10248800836A9B0606D50268936818490B40016C5D
:102498000B439360836A5B060BD502685368144943
:1024A8000B40416C0B43536080235B03426C9A42A0
:1024B8000AD0836A1B0606D5026853680D490B408B
:1024C800C16C0B4353607047026853680A490B405C
:1024D800816C0B435360ECE7FF7FFFFFFFFFFDFFBD
:1024E800FFFFFEFFFFFFFBFFFFEFFFFFFFDFFFFF29
:1024F800FFFFEFFFFFFFF7FFFFFF9FFFF8B5CE4697
:10250800474680B506000D0017009946089B984677
:102518003368DC692C40641B63425C41BC4233D1A4
:1025280043460133F4D0FFF7B5FD4B46C01A40458A
:102538002FD84346002B2ED033681A685207E7D5A8
:10254800802DE5D0402DE3D0DA69120710D4DA697E
:102558001205DDD5802212011A623000FFF734FE21
:1025680090232022F2500C3B0022F25403200CE06E
:1025780008241C623000FFF727FE9023F4500C3B20
:102588000022F254012000E00020C0BCB946B04649
:10259800F8BD0320F9E70320F7E7F0B5C64600B514
:1025A80082B004000D0090461E008823C358202BDB
:1025B80066D1002969D0002A69D080235B0182682E
:1025C8009A4204D10369002B01D1CB0761D490232F
:1025D8000022E250083B2132E250FFF75BFD070082
:1025E80054234246E2520233E25280235B01A2683E
:1025F8009A4202D00023984618E02369002B2AD07B
:102608000023984612E088232022E250032038E075
:1026180043461B882268DB05DB0D936202239C4638
:10262800E0445623E25A013A92B2E2525623E35A60
:102638009BB2002B12D000963B0000228021200084
:10264800FFF75CFF0028DED1002DE1D02A7823684F
:102658009A620135E5E7A8460025E7E700963B00C2
:10266800002240212000FFF749FF002803D18823DA
:102678002022E25005E088232022E250032000E0D7
:10268800022002B080BCB846F0BD0120F9E7012065
:10269800F7E70120F5E7000030B583B00400902388
:1026A8000022C250FFF7F6FC0500226812681307E3
:1026B80010D423681B685B072BD420238822A350DF
:1026C8000432A3500023E3662367083AA35400208A
:1026D80003B030BD8021234B0093030000228903FF
:1026E8002000FFF70BFF0028E3D0EFF31081012350
:1026F80083F310882268136880208343136081F372
:10270800108888232022E250043B0022E2547D38BE
:10271800DEE78021134B00932B000022C903200021
:10272800FFF7ECFE0028C8D0EFF31080012282F3F7
:10273800108821680B680C4D2B400B6080F31088C3
:10274800EFF3108082F3108821688B6893438B60C5
:1027580080F310888C231F32E250083B0022E25499
:102768000320B5E7FFFFFF01DFFEFFFF10B5041EE2
:1027780030D08823C358002B22D088232422E2504B
:102788002268136801218B431360A36A002B1DD1B3
:102798002000FFF74BFD012811D0226853680E492D
:1027A8000B405360226893682A218B439360226808
:1027B800136829390B4313602000FFF76DFF10BD24
:1027C80084330022C254FEF77BF8D6E72000FFF7D7
:1027D80025FEDDE70120F2E7FFB7FFFFF8B50400AB
:1027E800436E002B05D101336A228352023A835289
:1027F800F8BD026895686D0E07231D409268520F58
:102808001340084FF85CC000074EF15CFDF710FD5F
:102818006A23E052785DC000715DFDF709FD682309
:10282800E052E5E74C3300084433000870B58423D0
:10283800C35C012B15D08424012606558825242342
:102848004351026813681168B1431160064A134086
:102858000022426601680B60202343510255002084
:1028680070BD0220FCE7C046FFFFFFDFF8B504009B
:102878000A008423C35C012B1BD0842501206055EA
:1028880088262423A35123681F6819688143196087
:1028980020688368DB00D908114381602000FFF7B6
:1028A8009DFF23681F602023A35100236355002048
:1028B800F8BD0220FCE70000F8B504000B008422F4
:1028C800825C012A1BD08425012060558826242299
:1028D800A2512268176811688143116022689168C3
:1028E80008480140194391602000FFF777FF2368EB
:1028F8001F602023A351002363550020F8BD022048
:10290800FCE7C046FFFFFFF10D488546FEF71AF8C1
:102918000C480D490D4A002302E0D458C450043332
:10292800C4188C42F9D30A4A0A4C002301E0136008
:102938000432A242FBD300F017F8FDF787FEFEE74A
:102948000090002000000020700000209033000854
:1029580070000020CC020020FEE70000014B186840
:102968007047C0460C00002070B500260C4D0D4C79
:10297800641BA410A64209D1002600F08BFC0A4D66
:102988000A4C641BA410A64205D170BDB300EB58D5
:1029980098470136EEE7B300EB5898470136F2E75F
:1029A8008833000888330008883300088C3300080F
:1029B80003008218934200D1704719700133F9E778
:1029C8000EB400B50B499CB01DAB02900690079160
:1029D80004910948094904CB0591006802A90193AB
:1029E80000F070F80023029A13701CB008BC03B002
:1029F8001847C046FFFFFF7F0C0000200802FFFFBA
:102A0800F0B58E6885B007000C00039201939E42D2
:102A18003CD890238A89DB001A4234D0096923689C
:102A280060695B1A029303234343DD0FED18019B92
:102A3800029801331B186D10AB4200D91D005305D5
:102A480032D52900380000F053FB061E09D10C23AB
:102A58003B6040230120A28940421343A38105B073
:102A6800F0BD029A216900F0BAFAA389144A1A4003
:102A780080231343A381029B2661F61826606561B3
:102A8800019EED1AA560019B9E4200D9019E32006D
:102A98000399206800F0ACFAA36800209B1BA36090
:102AA80023689E192660DAE72A00380000F096FBB2
:102AB800061EE0D13800216900F0AEFAC7E7C0462B
:102AC8007FFBFFFFF0B5A1B003901D008B890F00BD
:102AD80016001B0611D50B69002B0ED1402100F002
:102AE80007FB38603861002805D10C23039A0138A8
:102AF800136021B0F0BD40237B61002308AC636103
:102B0800203363761033A376079535002B78002B96
:102B180001D0252B47D1AB1B0593B5420CD0320011
:102B280039000398FFF76CFF431C00D1AEE06269DF
:102B3800059B9446634463612B78002B00D1A5E084
:102B4800012200235242626004A9543252186E1CBA
:102B58002360E360A3601370A365052231785448AD
:102B680000F032FA751C00281FD12268D30604D55C
:102B7800532304A95B1820211970130704D5532384
:102B880004A95B182B21197033782A2B16D035002D
:102B980000210A20E3682A786E1C303A092A4ED9A7
:102BA800002911D117E00135B0E7414B2268C01A5E
:102BB8000123834013432E002360CEE7079B191D92
:102BC8001B680791002B01DB0B9304E05B42E36079
:102BD8000223134323602B782E2B0AD16B782A2BE0
:102BE80035D1079B02351A1D1B680792002B2BDB7A
:102BF8000993304E03223000297800F0E5F90028C7
:102C080006D04023801B834022680135134323608C
:102C18002978062228486E1C217600F0D5F900286C
:102C28003CD0264B002B25D10722079B0733934323
:102C3800083307936369049A9B18636165E7434304
:102C4800350001219B18A6E701235B42D0E700234A
:102C58000A201A000135636029786E1C3039092969
:102C680003D9002BC5D00992C3E74243350001239D
:102C78005218F1E707AB00933A002100104B039874
:102C880000E000BF0490049B0133D3D1BB890D98A9
:102C98005B0600D42DE7012040422AE707AB0093EA
:102CA8003A002100064B039800F07CF8EAE7C0469A
:102CB800543300085A3300085E330008000000004F
:102CC800092A0008F7B5150001938A680B690C00FA
:102CD8000090934200DA130022002B6043321278EE
:102CE800002A01D001332B6023689B0602D52B688C
:102CF80002332B602268062317001F401A4227D090
:102D0800230043331B785A1E93412268920630D41D
:102D1800220001990098089E4332B047431C25D0F1
:102D2800062320682A68E16800250340042B03D1A4
:102D38008D1AEB43DB171D40A3682269934201DD1E
:102D48009B1AED180027BD4220D1002010E0013762
:102D5800E3682A689B1ABB42D2DD2200012301994D
:102D68000098089E1932B047431CF0D10120404218
:102D7800FEBD3020E1184331087021005A1C45314E
:102D88000978A218433202331170C1E722000123E7
:102D980001990098089E1A32B047431CE6D00137C3
:102DA800D1E70000F0B58BB006920A0043320793D2
:102DB800059004920A7E0C00109B782A07D8622A94
:102DC80009D8002A00D1C1E0582A00D18CE0260099
:102DD8004236327022E0100063381528F7D8FDF724
:102DE80093F916001F00F6FFF6FFF6FFF6FF1F0027
:102DF800F6FFF6FFF6FFF6FFA80036009A00F6FF8A
:102E0800F6FFB900F6FF3600F6FFF6FF9E00260033
:102E18001A684236111D1960136833700123A7E040
:102E2800086819680A1D05060BD50D681A60002D7B
:102E380003DA2D23049A6D421370614B0A2703931A
:102E48001BE00D681A604106F1D52DB2EFE70D6859
:102E58001968081D18602E0601D50D6803E06D0677
:102E6800FBD50D68ADB2564B082703936F2A00D0E7
:102E780002372300002243331A706368A360002BD3
:102E880003DB0422216891432160002D02D1049EB6
:102E9800002B0CD0049E28003900FDF7C5F9039BD0
:102EA800013E5B5C33702B0005009F42F3D9082F6D
:102EB80009D12368DB0706D563682269934202DCDF
:102EC8003023013E3370049B9B1B2361079B210029
:102ED80000930598069B09AAFFF7F4FE431C4CD102
:102EE800012040420BB0F0BD45310A70344A0392CC
:102EF8001A68216820CA1A60080616D5CB0702D5B9
:102F08002023194321601027002DB2D120232268E5
:102F18009A432260ADE7202209680A432260220012
:102F2800782145321170274AE1E74806E6D5ADB267
:102F3800E4E71A680D68101D4969186013682E06C1
:102F480001D5196002E06D06FBD519800023049EA7
:102F58002361BBE71A68111D19601668002130004B
:102F6800626800F031F8002801D0801B6060636857
:102F780023610023049A1370A8E723693200069995
:102F88000598079DA847431CAAD023689B0715D41A
:102F9800099BE0689842A5DA1800A3E722000123FC
:102FA80006990598079E1932B047431C98D00135F9
:102FB800E368099A9B1AAB42F0DCE9E70025F7E7DA
:102FC8006533000876330008C9B28218904201D1EF
:102FD8000020704703788B42FBD00130F6E70023CE
:102FE80010B59A4200D110BDCC5CC4540133F8E747
:102FF80010B5884202D98B18984203D3002307E002
:103008008B5C8354013AFBD210BDCC5CC4540133B1
:103018009A42FAD1F8E7000070B50500002910D0EF
:103028000C1F2368002B00DAE418280000F018F9B8
:103038001D4A1368002B05D163601460280000F056
:1030480017F970BDA34208D9216860188342F3D1EB
:1030580018685B6841182160EEE71A005B68002B6E
:1030680001D0A342F9D911685018A0420BD12068A9
:103078000918501811608342E0D118685B6841183C
:1030880011605360DAE7A04202D90C232B60D5E720
:1030980021686018834203D118685B684118216071
:1030A80063605460CAE7C046BC02002070B50F4E8A
:1030B8000D0031680400002902D100F0BFF830602B
:1030C8002900200000F0BAF8431C0AD00323C51CCD
:1030D8009D43A84207D0291A200000F0AFF8431CEE
:1030E80001D101256D42280070BDC046C0020020F4
:1030F800F7B50322CB1C9343083306001F000C2BA3
:1031080032D20C27B94231D8300000F0A9F8324D3C
:103118002B681C00002C2ED139003000FFF7C6FFA9
:103128000400431C1ED12C682500002D4AD12368B9
:103138002900E3183000019300F080F8019B8342D6
:1031480043D123680337FF1A03239F4308370C2F03
:1031580000D20C2739003000FFF7A8FF431C34D0F9
:103168002368DF19276013E0002BCBDA0C23002536
:1031780033602800FEBD2268D11B20D40B2917D943
:10318800E2192760A34211D12A6063681160536075
:103198003000250000F06CF807220B35231D9543FD
:1031A800EA1A9D42E5D05B1BA350E2E75A60ECE7C0
:1031B8006268A34201D12A60EAE75A60E8E723007F
:1031C8006468A7E72C006D68AFE70C233000336014
:1031D80000F04EF8CDE7C046BC020020F7B5070066
:1031E8000E001400002905D11100FFF781FF05002A
:1031F8002800FEBD002A03D1FFF70EFF2500F7E7E0
:1032080000F03EF80190844203D835004308A342F9
:10321800EED321003800FFF76BFF051EE8D0019BB5
:1032280022009C4200D91A0031002800FFF7D7FE7F
:1032380031003800FFF7F0FEDAE70000002370B530
:10324800064D040008002B60FDF77EFB431C03D1EC
:103258002B68002B00D0236070BDC046C40200203C
:1032680010B5024800F014F810BDC046C80200208E
:1032780010B5024800F00DF810BDC046C802002085
:103288000B1F1B68181F002B01DA0B58C01870475A
:1032980070477047F8B5C046F8BC08BC9E467047F2
:0C32A800F8B5C046F8BC08BC9E46704754
:1032B400414443303A20256409092C2041444331D8
:1032C4003A2025640A0D0000000000000000000000
:1032D40000000000000000000000000000000000EA
:1032E40000000000000000000100000002000000D7
:1032F40003000000040000000600000007000000B6
:1033040008000000090000000000000000000000A8
:1033140000000000000000000100000002000000A6
:103324000300000004000000010002000400060085
:1033340008000A000C00100020004000800000017A
:10334400080402040801010101010103070100004E
:10335400232D302B2000686C4C006566674546477A
:1033640000303132333435363738394142434445FD
:10337400460030313233343536373839616263646C
:04338400656600007A
:04338800E100000858
:04338C00B90000087C
:103390000024F400010000000400000010000020E0
:1033A000000000000000000000000000000000001D
:1033B000000000000000000000000000000000000D
:1033C00000000000000000000000000000000000FD
:1033D00000000000000000000000000000000000ED
:1033E00000000000000000000000000000000000DD
:1033F00000000000000000000000000000000000CD
:0400000508002911B5
:00000001FF
