:020000040800F2
:1000000000900020E9250008550600085706000862
:1000100000000000000000000000000000000000E0
:100020000000000000000000000000005906000869
:1000300000000000000000005B0600085D060008EC
:10004000392600080000000039260008392600087B
:100050003926000839260008392600083926000804
:10006000000000003926000839260008392600085B
:10007000392600083926000839260008000000004B
:1000800039260008392600083926000839260008D4
:1000900039260008392600083926000839260008C4
:1000A00039260008392600083926000839260008B4
:0800B00039260008392600087A
:1000B80010B5064C2378002B07D1054B002B02D036
:1000C800044800E000BF0123237010BD7400002025
:1000D8000000000034310008044B10B5002B03D099
:1000E8000349044800E000BF10BDC04600000000FE
:1000F8007800002034310008002243088B4274D372
:1001080003098B425FD3030A8B4244D3030B8B4210
:1001180028D3030C8B420DD3FF22090212BA030C19
:100128008B4202D31212090265D0030B8B4219D3FA
:1001380000E0090AC30B8B4201D3CB03C01A52411A
:10014800830B8B4201D38B03C01A5241430B8B4262
:1001580001D34B03C01A5241030B8B4201D30B034B
:10016800C01A5241C30A8B4201D3CB02C01A524172
:10017800830A8B4201D38B02C01A5241430A8B4235
:1001880001D34B02C01A5241030A8B4201D30B021E
:10019800C01A5241CDD2C3098B4201D3CB01C01A38
:1001A800524183098B4201D38B01C01A5241430942
:1001B8008B4201D34B01C01A524103098B4201D330
:1001C8000B01C01A5241C3088B4201D3CB00C01A9D
:1001D800524183088B4201D38B00C01A5241430815
:1001E8008B4201D34B00C01A5241411A00D201463A
:1001F800524110467047FFE701B5002000F0F0F8C3
:1002080002BDC0460029F7D076E7704703460B4386
:100218007FD4002243088B4274D303098B425FD3F7
:10022800030A8B4244D3030B8B4228D3030C8B4223
:100238000DD3FF22090212BA030C8B4202D3121209
:10024800090265D0030B8B4219D300E0090AC30BDE
:100258008B4201D3CB03C01A5241830B8B4201D38B
:100268008B03C01A5241430B8B4201D34B03C01A74
:100278005241030B8B4201D30B03C01A5241C30AEC
:100288008B4201D3CB02C01A5241830A8B4201D35D
:100298008B02C01A5241430A8B4201D34B02C01A47
:1002A8005241030A8B4201D30B02C01A5241CDD2EC
:1002B800C3098B4201D3CB01C01A524183098B4237
:1002C80001D38B01C01A524143098B4201D34B0120
:1002D800C01A524103098B4201D30B01C01A524183
:1002E800C3088B4201D3CB00C01A524183088B420A
:1002F80001D38B00C01A524143088B4201D34B00F3
:10030800C01A5241411A00D2014652411046704764
:100318005DE0CA0F00D04942031000D34042534069
:1003280000229C4603098B422DD3030A8B4212D329
:10033800FC22890112BA030A8B420CD3890192115B
:100348008B4208D3890192118B4204D389013AD098
:10035800921100E08909C3098B4201D3CB01C01A6D
:10036800524183098B4201D38B01C01A5241430980
:100378008B4201D34B01C01A524103098B4201D36E
:100388000B01C01A5241C3088B4201D3CB00C01ADB
:10039800524183088B4201D38B00C01A5241D9D2F3
:1003A80043088B4201D34B00C01A5241411A00D274
:1003B8000146634652415B10104601D34042002B70
:1003C80000D54942704763465B1000D3404201B5EF
:1003D800002000F005F802BD0029F8D016E77047A4
:1003E8007047C046F0B58BB01422002105A802F072
:1003F8004BF9194B596B042211435963596B0A4045
:100408000192019A5A6B202632435A635A6B324042
:100418000292029A5A6B01252A435A635A6B2A4060
:100428000392039A5A6B022422435A635B6B23405C
:100438000493049BA027FF0500222021380001F027
:10044800BFF90596069500230793089405A9380077
:1004580001F0FAF80BB0F0BD0010024010B514001E
:10046800012392B25B42024801F003FF200010BD55
:100478005801002072B6FEE700B585B00C220021B5
:1004880001A802F001F91C481C4B0360A0235B0380
:10049800436000238360C3608022920302610422C8
:1004A8004261037643768376023AC2611E320121A5
:1004B8008154436283620C3283540363253A426356
:1004C800013A826336328354C36400F0F5F9002898
:1004D8000DD10B4B0193042302930023039301A92D
:1004E800054800F00BFB002803D105B000BDFFF75D
:1004F800C1FFFFF7BFFFC046900000200024014065
:100508000200000410B50D480D4B03600023436042
:100518008360E022D200C2600361436183610362A9
:10052800436283620722C2620363436301F05AFB9A
:10053800002800D110BDFFF79DFFC046F400002041
:100548000038004010B51748174B0360E1235B02E1
:10055800436000238360C36003610C2242618361AE
:10056800C36103624362836201F06CFF002811D10A
:1005780000210C4801F0E6FF00280DD100210948B0
:1005880002F006F8002809D1064801F0BBFF002850
:1005980006D110BDFFF76EFFFFF76CFFFFF76AFF8C
:1005A800FFF768FF580100200044004000B593B0F1
:1005B8003422002105A802F067F81022002101A8C2
:1005C80002F062F88020800001F000F90223059310
:1005D800FE3308930023099340220A920C9305A83E
:1005E80000F0DCFB00280DD10723019300230293C0
:1005F80003930493002101A800F07EFE002803D194
:1006080013B000BDFFF736FFFFF734FF10B501F058
:100618007FF9FFF7CBFFFFF7E5FEFFF72DFFFFF7A9
:1006280071FFFFF78FFF064802F0A8F86423012244
:100638000449054801F058FB642001F08FF9F5E7FB
:100648004C31000800000020F4000020FEE7FEE71F
:100658007047704710B501F06FF910BD82B00A4BB2
:10066800196C012211431964196C0A400092009A0E
:10067800DA6B802149050A43DA63DB6B0B4001938F
:10068800019B02B07047C0460010024010B58EB002
:1006980004001422002109A801F0F6FF1C22002101
:1006A80002A801F0F1FF2268164B9A4201D00EB061
:1006B80010BD8023DB01029302A800F0FDFE002894
:1006C8001CD1114B196C80204003014319641A6C2A
:1006D80002400092009A596B0122114359635B6BE7
:1006E8001A400192019B032309930A9300230B9359
:1006F800A02009A9C00500F0A7FFD8E7FFF7BAFEB8
:10070800DFE7C046002401400010024070B588B001
:1007180004001422002103A801F0B6FF2268214B2F
:100728009A4201D008B070BD1F4BD96B8020C00120
:100738000143D963DA6B02400092009A596B042294
:1007480011435963596B0A400192019A5A6B022569
:100758002A435A635B6B2B400293029B0C2303933F
:1007680004950B3B079303A9104800F06DFF802305
:10077800DB0003930495002405940694052307934E
:100788000B4E03A9300000F05FFF80235B01039349
:10079800049505940694079403A9300000F054FFCB
:1007A800C0E7C04600380040001002400008005072
:1007B8000004005010B58EB004001422002109A8CE
:1007C80001F062FF1C22002102A801F05DFF2268EF
:1007D800174B9A4201D00EB010BD0223029302A813
:1007E80000F06AFE00281FD1124BD96B80208002CE
:1007F8000143D963DA6B02400092009A596B0122D7
:10080800114359635B6B13400193019B0C230993BC
:100818000A3B0A930B9200230C930D92A02009A97E
:10082800C00500F011FFD6E7FFF724FEDCE7C0465D
:1008380000440040001002407047000010B503005B
:100848000C4A0D49521A0D490968002907D00B496D
:100858000868C318934206D8084A136010BD0749B0
:1008680007480860F3E701F0E5FE0C230360012068
:100878004042F3E70090002000040000EC01002053
:100888000802002070B50C001600002504E000E006
:1008980000BF207001350134B542F8DB300070BD6F
:1008A80001204042704780239B014B600020704725
:1008B800012070470020704730B583B00400002342
:1008C8000193002800D106E1836D002B13D0236823
:1008D8009A68D2001CD49A68804911408022520537
:1008E8000A439A607E4B18687E49FFF705FC013081
:1008F8004000019009E0FFF7C9FE0023E365542298
:10090800A354E4E7019B013B0193019B002BF9D120
:1009180023689A68D20000D59DE0A26D10210A4391
:10092800A265E26D0F390A43E26501209A68042145
:100938000D001540114200D00125A26DD20600D548
:10094800C2E0002D00D0BFE0A26D67490A40063121
:10095800FF310A43A2659A68D20752D4227E9203D5
:10096800A1680A43617EC9030A43A57E69030A4355
:10097800216B002901D0802149010A43E1680A431B
:100988002169002969DB802189030A432C21615CE4
:1009980049000A432021615C012961D0616A00296C
:1009A80005D0E0256D002940A56A29430A43D96886
:1009B8004E4D29400A43DA6063689B0F9B07E26C3F
:1009C8001A433C21615C012959D021680B69484DC3
:1009D8002B4013430B616368C0221206934210D068
:1009E8008022D20593420CD080221206934208D06E
:1009F80040490A68404D2A40F025AD032B40134377
:100A08000B602268536907218B43616B0B43536169
:100A180021684B6970229343A26B120113434B6107
:100A28002369002B35D12268916A103B0B439362EE
:100A380023685A6907231340626B9A423BD0A36D1F
:100A480012229343023A1343A365E36D0F3A13430B
:100A5800E36501203DE0002068E74900490894E784
:100A6800002D03D1802149020A4397E7A16D202573
:100A78002943A165E16D1F3D2943E1658EE7216C9E
:100A88000B43616C0B43A16C0B43134301221A43C4
:100A98009BE7802292039342CAD121688B6AE3695B
:100AA800013B9B001C221A4010235B429340226E9C
:100AB80013438B62BCE70023E365A36D03229343D2
:100AC800023A1343A36504E0A36D10221343A36500
:100AD800012003B030BD0120FBE7C046E8FFFF6FEF
:100AE80004000020400D0300FDFEFFFF0102DEFFB1
:100AF80002FCFF1F08270140FFFFC3FFF0B583B0CA
:100B080004000023019305695433C35C012B00D111
:100B180030E154230122C25400688368033216006E
:100B28001E401A4209D0A36D1C321343A36501204D
:100B380054230022E25403B0F0BD4B68022B00D1CD
:100B4800D6E080221206954226D08B4A954223D0C1
:100B58001F221340103A9A40256E95432A000D68CB
:100B68006F032FD1AD0E1F262E409E4016432666DA
:100B78004D68AB080133E269934213D8826A1F2398
:100B88001D40103B1E00AE40B2430E68B60E334007
:100B9800AB401343836205E0826A0B685B035B0B1F
:100BA80013438362206842690B681B029A438D686D
:100BB8002B40724D2B40134343610B68002B4FDBD6
:100BC8000020B5E7EF07D0D4AE0727D46E0727D4A7
:100BD8002E0727D4EE0627D4AE0627D46E0627D4D0
:100BE8002E0627D4EE0527D4AE0527D46E0527D4C4
:100BF8002E0527D4EE0427D4AE0427D46E0427D4B8
:100C08002E0427D4EE0327D4AE0327D48027FF026F
:100C18002E003E403D42A8D01226A6E70126A4E7B2
:100C28000226A2E70326A0E704269EE705269CE7FE
:100C380006269AE7072698E7082696E7092694E7FE
:100C48000A2692E70B2690E70C268EE70D268CE7FE
:100C58000E268AE70F2688E7102686E7112684E7FE
:100C6800474A1168E02252040A404648834207D0A6
:100C78004548834222D0454883422CD0002057E77C
:100C88000802F5D480231B041A433D490B684048E9
:100C980003401A430A603F4B18683F49FFF72CFA94
:100CA800013043001B189B00019302E0019B013BAC
:100CB8000193019B002BF9D1002039E7C801DAD450
:100CC80080235B041A432E490B68314803401A43BA
:100CD8000A6000202CE74B024AD48023DB031A4326
:100CE80027490B682A4803401A430A6000201FE777
:100CF80080231B069D4202D01F4B9D4205D1826A6C
:100D08000B685B035B0B9A4382620B68002B01DB69
:100D180000200DE71A4A12681A498B4207D01A496F
:100D28008B420FD019498B4217D0002000E7A0232F
:100D38005B041A4012490B68154803401A430A60BD
:100D48000020F5E6C0231B041A400D490B68104823
:100D580003401A430A600020EAE6C0235B041A40F5
:100D680007490B680A4803401A430A600020DFE677
:100D78000020DDE60220DEE60400008000FFFF0719
:100D880008270140001000B0004000B8002000B45F
:100D9800FFFF3FFE04000020400D030070B582B045
:100DA800041E00D129E20368DB0739D5C14A9168DE
:100DB80038230B40D16803220A40102B26D0082B79
:100DC80026D063688022520293427FD0A022D202AA
:100DD800934200D181E0B74B1A68B7490A401A60BC
:100DE8001A68B6490A401A606368002B00D180E08F
:100DF80000F0AEFD0500AF4B1B689B0310D400F05C
:100E0800A7FD401B6428F6D90320F7E1032AD6D1B1
:100E1800A84B1B689B0303D56368002B00D1EFE147
:100E280023689B0731D5A34A936838210B40D168C2
:100E380003220A40102B6AD0002B6BD19D4A1268FE
:100E4800520503D5E268002A00D1DBE199484268DF
:100E58009B490A40616909020A434260002B0DD18F
:100E6800036898490B4021690B4303600368DB0A58
:100E780007221A40944BD340944A1360944B186845
:100E880000F01AFD002800D0BEE123681B0700D43B
:100E980081E0884B9A6838231340182B73D0A369D4
:100EA800002B00D1B4E0834A136E01210B43136673
:100EB80000F04EFD05007F4B1B6E9B076BD400F0C6
:100EC80047FD401B0228F6D9032097E1794A1168AB
:100ED80080235B020B43136086E7764B19688022F8
:100EE800D2020A431A601968802252020A431A6021
:100EF8007AE700F02DFD05006E4B1B689B038FD52C
:100F080000F026FD401B6428F6D9032076E1022A6A
:100F180092D193E7E368002B22D0664A13686949A7
:100F28000B4021690B431360116880235B000B435E
:100F3800136000F00DFD05005E4B1B685B0506D4D1
:100F480000F006FD401B0228F6D9032056E1594956
:100F58004B685B4A13406269120213434B6094E783
:100F6800544A13685B490B40136000F0F1FC05001C
:100F7800504B1B685B0588D500F0EAFC401B022833
:100F8800F6D903203AE14B4B1B6E9B0703D5A369A7
:100F9800002B00D13AE123685B0700D4A2E0454B5F
:100FA8009A6838231340202B45D0424BDB6BDB007B
:100FB8004AD4404AD16B802040050143D163D36BAA
:100FC80003400193019B0125434B1B68DB053DD57D
:100FD800A368012B4ED0052B52D0364BDA6D012178
:100FE8008A43DA65DA6D03318A43DA65A368002B30
:100FF80050D000F0ADFC06002E4BDB6D9B076FD484
:1010080000F0A6FC801B354B9842F5D90320F5E08B
:10101800284A136E01218B43136600F099FC0500E2
:10102800244B1B6E9B07B6D500F092FC401B022890
:10103800F6D90320E2E01F4BDB6D9B0752D5A3686E
:10104800002B4FD10120D9E00025BDE7224A1168C5
:1010580080235B000B43136000F07AFC06001E4BF4
:101068001B68DB05B4D400F073FC801B0228F6D99A
:101078000320C3E00F4AD36D01210B43D365B5E7C5
:101088000C4BDA6D04210A43DA65DA6D03390A4339
:10109800DA65ABE700F05CFC0600064BDB6D9B07EE
:1010A8001ED500F055FC801B0C4B9842F5D9032047
:1010B800A4E0C04600100240FFFFFEFFFFFFFBFF59
:1010C800FF80FFFFFFC7FFFF0024F400040000209B
:1010D8000C000020FFFEFFFF007000408813000096
:1010E800012D1ED0E369002B00D191E04F4A916891
:1010F80038220A40102A5ED0022B18D04B4A1368B7
:101108004B490B40136000F023FC0400474B1B685D
:101118009B0149D500F01CFC001B0228F6D90320CE
:101128006CE0424AD36B43490B40D363DAE73F4A4A
:1011380013683F490B40136000F00AFC05003B4B65
:101148001B689B0106D500F003FC401B0228F6D95A
:10115800032053E0354AD36837491940236A606A47
:101168000343A06A00020343E06A0343206B03437E
:101178000B43D360116880235B040B431360D16871
:1011880080235B050B43D36000F0E2FB0400274B90
:101198001B689B0106D400F0DBFB001B0228F6D974
:1011A80003202BE0002029E0204AD36823490B4084
:1011B800D360002022E0012B2CD01C4BDA680323DB
:1011C8001340216A8B4227D170231340616A8B42F6
:1011D80024D1FE21C9011140A36A1B0299421FD1E3
:1011E800F8239B031340E16A8B421BD1520F52072D
:1011F800236B9A4218D1002000E0012002B070BD94
:101208000120FBE70120F9E70120F7E70120F5E7D6
:101218000020F3E70120F1E70120EFE70120EDE7E7
:101228000120EBE70120E9E70120E7E70010024091
:10123800FFFFFFFEFFFFFFEF8C80C11FFCFFFEEFEB
:1012480010B52A4B9B6838221A4207D1274B1A68D7
:10125800D20A072313402648D84010BD234B9A686A
:1012680038231340082B3BD0204B9A68382313406F
:10127800102B0DD01D4B9A6838231340202B31D0EA
:101288001A4B9A6838231340182B26D00020E4E71D
:10129800164AD1680D3B0B40D2681209072111404C
:1012A8000131032B0FD01248FEF726FF0F4BDA68E7
:1012B800120A7F23134058430C4BD968490F013158
:1012C800FEF71AFFC9E70B48FEF716FF074BDA6867
:1012D800120A7F2313405843EEE7FA20C001BCE707
:1012E8000448BAE780200002B7E7C0460010024071
:1012F8000024F40000127A0070B504000D000028E4
:1013080000D1AAE0574B1A68072313408B4221D318
:1013180023689A070ED55B0705D5534A9168E023E1
:10132800DB010B439360504A936850490B40A16816
:101338000B4393602368DB0754D56368012B20D0E7
:10134800022B3BD0002B3FD1474A126852051CD4D0
:1013580001206AE0434A136807218B432B4313603B
:1013680000F0F6FA06003F4B1A6807231340AB4219
:10137800CED000F0EDFA801B3D4A9042F3D903200D
:1013880053E0394A1268920369D537498A680720B9
:10139800824313438B6000F0DBFA0600324B9B68F4
:1013A80038221A406368DB009A421BD000F0D0FA5A
:1013B800801B2F4B9842F1D9032036E02A4A126845
:1013C8009201E2D4012030E0032B05D0264AD26DE9
:1013D8009207DAD4012028E0234A126E9207D4D467
:1013E800012022E01F4B1A6807231340AB421DD887
:1013F80023685B0706D51C4A93681E490B40E168C1
:101408000B439360FFF71CFF174B9A68120A0F23D0
:1014180013409B00184A9A581F231340D840174B73
:101428001860174B186800F047FA70BD0D4A13682A
:1014380007218B432B43136000F08AFA0600094BFF
:101448001A6807231340AB42D2D000F081FA801B00
:10145800074B9842F3D90320E7E70120E5E701208D
:10146800E3E7C0460020024000100240FFF0FFFF03
:1014780088130000FF8FFFFF583100080400002088
:101488000C000020014B18687047C046040000207B
:1014980010B5FFF7F7FF064B9A68120B07231340A6
:1014A8009B00044A9A581F231340D84010BDC046D9
:1014B8000010024098310008F0B583B004000368BA
:1014C8009B0362D5584BDB6BDB001ED4564AD16BAD
:1014D800802040050143D163D36B03400193019BF6
:1014E8000126524A116880235B000B43136000F009
:1014F8002FFA05004D4B1B68DB0508D400F028FACD
:10150800401B0228F6D9032502E00026E9E700255A
:10151800002D23D1444BD96DC02292000B001340FB
:10152800114210D0A2699A420DD03F4AD36D40496A
:101538000B40D06D802149020143D165D16D3D48F2
:101548000140D165D365DB0710D4002D06D1364A9A
:10155800D36D37490B40A1690B43D365012E15D1D3
:10156800314AD36B34490B40D3630FE000F0F0F9F4
:1015780007002D4BDB6D9B07E7D400F0E9F9C01B92
:101588002E4B9842F5D90325DFE700252368DB07B2
:1015980006D5254A536D03218B4361680B43536578
:1015A80023689B0706D5204A536D0C218B43A168FD
:1015B8000B43536523689B0606D51B4A536D204988
:1015C8000B40E1680B43536523685B040BD5164A4F
:1015D800536D9B009B0861690B4353658023DB05B2
:1015E80062699A4211D023681B050BD50E4A536DC8
:1015F80014490B4021690B43536522698023DB01A1
:101608009A4209D0280003B0F0BD074AD168802368
:101618005B020B43D360E6E7034AD16880235B0291
:101628000B43D360EEE7C046001002400070004054
:10163800FFFCFFFFFFFFFEFFFFFFFFEF8813000027
:10164800FFCFFFFFFF3FFFFFF0B500235AE084689C
:101658005F000326BE40B4432600CC68BC40344338
:101668008460446894434A681609012232409A40CB
:101678002243426056E0DC080834A40026580532AC
:101688001A4092000F279740BE430F6997403A00CF
:10169800324322505AE0032600E00026A6403400D8
:1016A8003C43434E1832920094513468EA43260072
:1016B800AE434F68FF0201D52C4326003C4C266000
:1016C8006468260016404F68BF0201D52C432600E7
:1016D800374C66608426A459260016404F68BF031D
:1016E80001D52C432600324C8427E6518026A45984
:1016F80022404E68F60301D52A0022432C4D80244F
:101708002A5101330C682200DA404FD001229A4056
:10171800250015401442F4D003244E683440013C9F
:10172800012C94D903224C682240032A09D0C268AC
:101738005E000324B440A24314008A68B2402243E6
:10174800C26003224C682240022A94D004685E00DA
:1017580003221700B740BC434F683A40B2402243C7
:101768000260C02292024C681442CAD09A0814003F
:101778001834A4000E4EA75903241C40E4000F2679
:10178800A640B743A026F605B04286D0094EB0421F
:1017980008D0094EB04207D0084EB04200D17AE7CF
:1017A80005267BE7012679E7022677E7F0BDC046E4
:1017B800001802400004005000080050000C0050BF
:1017C800002A01D0816170478162FCE710B5104A98
:1017D800136810490B400343136080239B00984211
:1017E80001D0002010BD0C4B1B685800C0184000E9
:1017F8000A49FEF781FC0130054B5B695B0503D59F
:10180800002803D00138F7E70020EBE70320E9E7D9
:1018180000700040FFF9FFFF0400002040420F0065
:1018280070B5002811DB8308134EC0339B009D5907
:1018380003242040C000FF2214008440A5438901EE
:101848000A4082402A439A5170BD0F230340083B47
:101858009B0806339B00094A944663445C6803224C
:101868001040C000FC3215008540AC4389010A4095
:10187800824022435A60E7E700E100E000ED00E023
:10188800013880235B0498420FD2094A5060094806
:10189800036A1B021B0AC02109060B4303620023CB
:1018A800936007331360002070470120FCE7C046AF
:1018B80010E000E000ED00E010B50400114B1978CD
:1018C800002901D1012010BDFA208000FEF714FC88
:1018D80001000D4B1868FEF70FFCFFF7D1FF002839
:1018E8000DD1032C01D90120EDE7013000222100A0
:1018F8004042FFF795FF054B1C600020E3E70120FD
:10190800E1E7C04608000020040000200C00002089
:1019180010B5084A116880235B000B431360002050
:10192800FFF7CAFF041E02D00124200010BDFEF7F5
:1019380095FEFAE700200240034B1B78034A116822
:101948005B1813607047C04608000020F0010020B3
:10195800014B18687047C046F001002070B50400BC
:10196800FFF7F6FF0500631C02D0044B1B78E41850
:10197800FFF7EEFF401BA042FAD370BD080000201D
:10198800F0B5D6464F464646C0B582B006000D00B3
:1019980090461F00FFF7DCFF0A9B181A8146B944DE
:1019A800FFF7D6FF82462E4B1B685B011B0D4A468C
:1019B8005343019333689C682C40641B63425C4129
:1019C800444545D07B1CF5D0FFF7C2FF5346C01AEB
:1019D80048450BD24B46002B08D0019A002A00D06C
:1019E8004A46019B013B01939146E3E732685368FD
:1019F800E0218B43536082235B0072689A420CD0CB
:101A080080239B01B26A9A4216D05D230122F254C8
:101A1800013B0022F25403201BE0B368802212022B
:101A2800934203D08022D2009342E9D132681368EE
:101A380040218B431360E3E73268136809490B4080
:101A480013603268116880239B010B431360DCE745
:101A5800002002B0E0BCBA46B146A846F0BDC04678
:101A680004000020FFDFFFFFF0B5DE4657464E4674
:101A78004546E0B583B007000D00160098466B4652
:101A88000022DA70FFF764FF0C9B181A4044814665
:101A9800FFF75EFF82463B689B46364B1A68930009
:101AA8009A18D3009B1A1B0D4A465343019302E030
:101AB8004346013311D13B689C682C40B44250D056
:101AC800C023DB009D42F3D1002EF1D15B461B7B86
:101AD800DBB26A46D370D378EAE7FFF739FF53469B
:101AE800C01A48450BD24B46002B08D0019A002A51
:101AF80000D04A46019B013B01939146DBE73A68D7
:101B08005368E0218B43536082235B007A689A42D2
:101B18000CD080239B01BA6A9A4216D05D23012219
:101B2800FA54013B0022FA5403201BE0BB688022D0
:101B38001202934203D08022D2009342E9D13A683C
:101B4800136840218B431360E3E73A6813680A4936
:101B58000B4013603A68116880239B010B431360A4
:101B6800DCE7002003B0F0BCBB46B246A946A0465D
:101B7800F0BDC04604000020FFDFFFFF70B582B053
:101B880004000D001600C02100922B00002249011C
:101B9800FFF76AFF002818D100962B000022802149
:101BA8002000FFF7EDFE002816D1C02100962B007B
:101BB8000022C9002000FFF757FF00280AD0236E33
:101BC800202213432366032004E0236E20221343BC
:101BD8002366032002B070BD236E202213432366C0
:101BE8000320F7E770B5041E00D178E0436A002BA4
:101BF80007D10533FF3342689A4205D00023C361F9
:101C080002E00023036143610023A3625D33E35CC8
:101C1800002B5AD05D230222E25422681368402127
:101C28008B431360E368E022D200934254D9002228
:101C3800F02109018B4205D0E021C9008B4201D077
:101C48000023A36282235B0061680B4084210902A0
:101C5800A06801400B430221206901400B43012188
:101C680060690840034380208000A5692840034339
:101C78003820E569284003438020256A284003432B
:101C880080208001A56A2840034320680360608B98
:101C9800042303401020656A284003430820656B2D
:101CA80028400343F0200001E568284003432068EA
:101CB800134343602268D3690A480340D361002371
:101CC80023665D33E154002070BD5C330022E2548A
:101CD8002000FEF71BFD9DE780225201A8E70120A6
:101CE800F2E7C046FFF7FFFFF0B5CE4600B584B077
:101CF8000400019191461D005C23C35C012B00D1B7
:101D0800CBE05C230122C254FFF722FE06005D23CC
:101D1800E35CDFB2012B00D0B6E00199002900D1C5
:101D2800B3E04B46002B00D1AFE05D230322E25421
:101D380000232366A1634A46A287E28723644422DC
:101D4800A3520232A3522365E36480231B02A268D4
:101D58009A421ED023681A68520603D41A68402192
:101D68000A431A60E023DB00E2689A423ED96368BE
:101D7800002B02D04B46012B20D12368A26B12887E
:101D8800DA60A36B0233A363E38F013B9BB2E38763
:101D980014E02268136840218B431360226811689D
:101DA8008023DB010B431360D4E7FFF7D1FD801BD1
:101DB800A84201D36B1C14D1002D12D0E18F89B237
:101DC800002946D023689A689207EED5A26B12883C
:101DD800DA60A36B0233A363E38F013B9BB2E38713
:101DE800ECE75D230122E25403274EE06368002BF1
:101DF80002D04B46012B14D1A36B1B7822681373B6
:101E0800A36B0133A363E38F013B9BB2E38708E035
:101E1800FFF79EFD801BA84201D36B1C14D1002D37
:101E280012D0E18F89B2002913D023689A689207EB
:101E3800EED5A26B12781A73A36B0133A363E38FF9
:101E4800013B9BB2E387ECE75D230122E2540327C1
:101E58001BE0320029002000FFF790FE002801D087
:101E680020232366A368002B06D103932368DA682E
:101E780003929B680393039B236E002B05D15D336C
:101E88000122E254002700E002275C230022E254EA
:101E9800380004B080BCB946F0BD0227F8E700005E
:101EA80030B5EFF31084012282F3108801680B68C3
:101EB800124D2B400B6084F31088EFF3108182F3EE
:101EC8001088026893680E4C2340936081F3108851
:101ED800C36E012B06D08C232022C2500023C36678
:101EE800436730BDEFF3108183F3108802681368ED
:101EF8001024A343136081F31088ECE7DFFEFFFF93
:101F0800FEFFFFEF10B504008368026913434269BE
:101F18001343C269134301680A686B4802401343BC
:101F28000B602268536869490B40E1680B435360B2
:101F3800226AA3691A4321688B68654803401343E2
:101F48008B602268D36A0F218B43616A0B43D3628B
:101F58002368604A93420AD05F4A93423ED05F4A60
:101F680093425CD05E4A934249D010230BE05D4B0C
:101F78005A6D03231340022B43D02BD8002B42D099
:101F8800012B42D10333E06980221202904248D0EB
:101F9800042B00D191E07AD8002B00D186E0022BE7
:101FA80073D15148636A5B00504A995AFEF7A4F806
:101FB80063685B08C0186168FEF79EF80200103A73
:101FC8004B4B9A4200D97DE023680004000CD8608E
:101FD800002062E0032B1AD10533D4E7414B5A6D38
:101FE8000C231340082B14D005D8002B13D0042B36
:101FF800C9D01023C7E70C2B0FD1043BC3E700233C
:10200800C1E70223BFE70023BDE71023BBE7102386
:10201800B9E70223B7E70023B5E71023B3E70023A6
:10202800B1E7042B2ED023D8002B25D0022B1DD1AD
:102038002D48636A5B002D4A995AFEF75DF8400007
:1020480063685B08C0186168FEF756F80200103A2A
:10205800274B9A4234D882B20F239A434008083B50
:10206800184010432368D860002016E0012014E0CF
:10207800082BDED0012010E0FFF70AFA0028D8D19B
:1020880000200AE0FFF7DCF8F8E7012005E0082B5C
:1020980002D18020000285E7012001236A22A35291
:1020A800023AA35200236367A36710BDFFF7F0F954
:1020B800002800D076E70020EFE7FFF7C1F8F7E740
:1020C8000120EAE70120E8E7F369FFCFFFCFFFFF30
:1020D800FFF4FF1100380140004400400048004070
:1020E800004C0040001002400024F400B831000801
:1020F800EFFF0000836A1B0706D5026853682C4966
:102108000B40816B0B435360836ADB0706D502687B
:10211800536828490B40C16A0B435360836A9B0785
:1021280006D50268536824490B40016B0B43536082
:10213800836A5B0706D50268536820490B40416BE8
:102148000B435360836ADB0606D5026893681C4913
:102158000B40C16B0B439360836A9B0606D50268EC
:10216800936818490B40016C0B439360836A5B06C4
:102178000BD50268536814490B40416C0B435360FC
:1021880080235B03426C9A420AD0836A1B0606D5F9
:10219800026853680D490B40C16C0B43536070478C
:1021A800026853680A490B40816C0B435360ECE7A3
:1021B800FF7FFFFFFFFFFDFFFFFFFEFFFFFFFBFFAE
:1021C800FFEFFFFFFFDFFFFFFFFFEFFFFFFFF7FF5F
:1021D800FFFF9FFFF8B5CE46474680B506000D00C5
:1021E80017009946089B98463368DC692C40641BA5
:1021F80063425C41BC4233D143460133F4D0FFF71C
:10220800A7FB4B46C01A40452FD84346002B2ED07B
:1022180033681A685207E7D5802DE5D0402DE3D002
:10222800DA69120710D4DA691205DDD580221201A5
:102238001A623000FFF734FE90232022F2500C3B44
:102248000022F25403200CE008241C623000FFF73F
:1022580027FE9023F4500C3B0022F254012000E0AA
:102268000020C0BCB946B046F8BD0320F9E70320FA
:10227800F7E7F0B5C64600B582B004000D009046F9
:102288001E008823C358202B66D1002969D0002A54
:1022980069D080235B0182689A4204D10369002BCC
:1022A80001D1CB0761D490230022E250083B2132B0
:1022B800E250FFF74DFB070054234246E252023337
:1022C800E25280235B01A2689A4202D0002398461A
:1022D80018E02369002B2AD00023984612E08823AF
:1022E8002022E250032038E043461B882268DB05A1
:1022F800DB0D936202239C46E0445623E25A013ADE
:1023080092B2E2525623E35A9BB2002B12D00096A7
:102318003B00002280212000FFF75CFF0028DED16F
:10232800002DE1D02A7823689A620135E5E7A846AE
:102338000025E7E700963B00002240212000FFF738
:1023480049FF002803D188232022E25005E0882392
:102358002022E250032000E0022002B080BCB846F0
:10236800F0BD0120F9E70120F7E70120F5E70000BB
:1023780030B583B0040090230022C250FFF7E8FA7A
:10238800050022681268130710D423681B685B07CE
:102398002BD420238822A3500432A3500023E366C1
:1023A8002367083AA354002003B030BD8021234B93
:1023B80000930300002289032000FFF70BFF002889
:1023C800E3D0EFF31081012383F3108822681368A8
:1023D80080208343136081F3108888232022E250F1
:1023E800043B0022E2547D38DEE78021134B009342
:1023F8002B000022C9032000FFF7ECFE0028C8D0FC
:10240800EFF31080012282F3108821680B680C4DCD
:102418002B400B6080F31088EFF3108082F3108854
:1024280021688B6893438B6080F310888C231F325C
:10243800E250083B0022E2540320B5E7FFFFFF010A
:10244800DFFEFFFF10B5041E30D08823C358002BD1
:1024580022D088232422E2502268136801218B436A
:102468001360A36A002B1DD12000FFF74BFD012844
:1024780011D0226853680E490B4053602268936854
:102488002A218B4393602268136829390B43136010
:102498002000FFF76DFF10BD84330022C254FEF701
:1024A80089F9D6E72000FFF725FEDDE70120F2E7EE
:1024B800FFB7FFFFF8B50400436E002B05D10133C9
:1024C8006A228352023A8352F8BD026895686D0EFB
:1024D80007231D409268520F1340084FF85CC00054
:1024E800074EF15CFDF792FE6A23E052785DC0006A
:1024F800715DFDF78BFE6823E052E5E7D8310008EF
:10250800D031000870B58423C35C012B15D0842416
:10251800012606558825242343510268136811684B
:10252800B1431160064A13400022426601680B60FD
:10253800202343510255002070BD0220FCE7C0460D
:10254800FFFFFFDFF8B504000A008423C35C012BFA
:102558001BD084250120605588262423A351236895
:102568001F6819688143196020688368DB00D908EF
:10257800114381602000FFF79DFF23681F6020231F
:10258800A351002363550020F8BD0220FCE700009A
:10259800F8B504000B008422825C012A1BD0842534
:1025A8000120605588262422A251226817681168E4
:1025B800814311602268916808480140194391607D
:1025C8002000FFF777FF23681F602023A351002313
:1025D80063550020F8BD0220FCE7C046FFFFFFF16D
:1025E8000D488546FEF728F90C480D490D4A002389
:1025F80002E0D458C4500433C4188C42F9D30A4AB0
:102608000A4C002301E013600432A242FBD300F01D
:1026180017F8FDF7FBFFFEE7009000200000002000
:10262800740000204C3200087400002004020020CE
:10263800FEE70000014B18687047C04610000020F4
:1026480070B500260C4D0D4C641BA410A64209D190
:10265800002600F06BFD0A4D0A4C641BA410A6422C
:1026680005D170BDB300EB5898470136EEE7B300CB
:10267800EB5898470136F2E7443200084432000824
:10268800443200084832000803008218934200D1FF
:10269800704719700133F9E770B505000E0000287E
:1026A80004D08369002B01D100F06EFAAB69AC68E5
:1026B800002B02D1280000F067FA2D4B9C4222D152
:1026C8006C68636EDB0705D4A3899B0502D4A06DF3
:1026D80000F0FBFAA3891B0702D52369002B29D137
:1026E8002100280000F0AAF8002823D001256D4217
:1026F800636EDB0705D4A3899B0502D4A06D00F0A7
:10270800E5FA280070BD1B4B9C4201D1AC68D8E7A4
:10271800194B9C42D5D1EC68D3E70136A360002B56
:1027280004DAA2699A4216DC0A2914D023685A1CD2
:1027380022601970A3683178013B0029EDD1A360AC
:10274800002B0FDA280022000A3100F021F80A25B0
:10275800431CCDD1CAE72200280000F019F8431C19
:10276800E8D1C3E70A2523685A1C22601D70BFE719
:102778000432000824320008E431000810B5034B85
:1027880001001868FFF788FF10BDC0461000002040
:10279800F8B505000E001400002804D08369002B4A
:1027A80001D100F0F1F9224B9C422ED16C68A3694B
:1027B800A360A3891B0732D52369002B2FD0236878
:1027C8002269F7B2981A6369F6B2834205DC2100E0
:1027D800280000F037F9002827D1A3680130013B11
:1027E800A36023685A1C22601F706369834204D067
:1027F800A389DB0707D50A2E05D12100280000F0A0
:1028080021F9002811D13000F8BD0A4B9C4201D1B2
:10281800AC68CCE7084B9C42C9D1EC68C7E72100FB
:10282800280000F00BF80028C9D001267642EAE714
:102838000432000824320008E4310008374B70B530
:102848001D6806000C00002D05D0AB69002B02D1D5
:10285800280000F099F9324B9C420FD16C680C2388
:10286800E25E93B211072DD4D90611D409230120B1
:10287800336037331343A381404270BD294B9C42D8
:1028880001D1AC68EBE7284B9C42E8D1EC68E6E75D
:102898005B0713D5616B002908D0230044339942A4
:1028A80002D0300000F080FA002363632422A38959
:1028B8009343A38100236360236923600823A289CB
:1028C8001343A3812369002B0BD1A0218022A38964
:1028D800890092000B40934203D02100300000F0A1
:1028E8001FFA0C22A35E01201A0099B2024003428B
:1028F8000FD00022A26062695242A26100202269C0
:102908008242BAD10A06B8D540221343A3810138BE
:10291800B3E7880700D46269A260EFE710000020DF
:102928000432000824320008E4310008F7B58B8926
:1029380005000C001A075FD44A68002A04DC0A6CF8
:10294800002A01DC0020FEBDE76A002FFAD0002231
:1029580080212E682A601A0049010A400B4234D0AF
:10296800606DA3895B0706D56368C01A636B002B8B
:1029780001D0236CC01A0200216A00232800E76AEC
:10298800B847A189431C06D12B681D2B31D82C4A86
:10299800DA40D3072DD50023636023692360CB0475
:1029A80005D5431C02D12B68002B00D16065616BF3
:1029B8002E600029C6D023004433994202D0280053
:1029C80000F0F2F900206063BDE701232800216AC6
:1029D800B847431CC5D12B68002BC2D01D2B01D092
:1029E800162B01D12E60ADE74023A2891343A381A2
:1029F800A9E740230B43FAE70F69002FA2D00A6822
:102A08000F60D21B019200229B0700D14A69A26085
:102A1800019B002B00DC95E73A002800019B216A06
:102A2800A66AB047002806DC40230120A28940425C
:102A38001343A38187E7019B3F181B1A0193E7E71C
:102A4800010040200B6970B505000C00002B02D175
:102A58000025280070BD002804D08369002B01D10F
:102A680000F092F8144B9C421BD16C680C22A35EB8
:102A7800002BEDD0626ED20704D49B0502D4A06D62
:102A880000F023F928002100FFF750FF636E0500CE
:102A9800DB07DED4A3899B05DBD4A06D00F016F913
:102AA800D7E7064B9C4201D1AC68DFE7044B9C4258
:102AB800DCD1EC68DAE7C0460432000824320008AA
:102AC800E4310008002310B504000360436083600C
:102AD800818143661900C2810361436183610822D1
:102AE8005C30FFF7D1FD054B24626362044BA3629F
:102AF800044BE362044B236310BDC046992F0008C2
:102B0800C12F0008F92F00082530000810B5024928
:102B180000F0BAF810BDC0464D2A000870B5682507
:102B28004A1E55430E002900743100F0A9F9041E0D
:102B380008D000212A00016046600C30A06068328D
:102B4800FFF7A2FD200070BD10B5024800F0BDF8E7
:102B580010BDC046F501002010B5024800F0B6F8D7
:102B680010BDC046F501002010B5024800F0ADF8D0
:102B780010BDC046F601002010B5024800F0A6F8C6
:102B880010BDC046F601002013B50400FFF7ECFFA6
:102B9800A369002B02D0FFF7EFFF13BDA364E36422
:102BA8002365134B134A1B68A2620193A34201D108
:102BB8000123A361200000F01FF86060200000F0EE
:102BC8001BF8A060200000F017F800220421E06044
:102BD8006068FFF777FF01220921A068FFF772FFFD
:102BE80002221221E068FFF76DFF0123A361D2E7FB
:102BF800E0310008152B0008F8B50700FFF7A4FF1F
:102C08001F4B1E68B369002B02D13000FFF7BCFFD1
:102C18004836B4687368013B04D53368002B22D06A
:102C28003668F6E70C22A55E002D1AD12000154B58
:102C38005830E360656600F047F8FFF78DFF200025
:102C4800082229002560A560656025616561A56188
:102C58005C30FFF719FD6563A563A564E564200092
:102C6800F8BD6834D7E704213800FFF757FF041E82
:102C78003060D5D1FFF770FF0C233B60EFE7C0460B
:102C8800E03100080100FFFFF7B504000600002747
:102C9800019148346368A5680093009B013B009349
:102CA80004D52468002CF5D13800FEBDAB89012B72
:102CB80008D90E22AB5E013304D029003000019BF5
:102CC800984707436835E8E7704770477047000042
:102CD80070B50E001D000E23C95E140096B00029C1
:102CE80008DA0C22B35E00222A601B0611D4802366
:102CF800DB000FE06A4600F0BDF90028F1DBF023A5
:102D080001991B021940054BC9184B4259412960CA
:102D1800EDE740230020236016B070BD00E0FFFF00
:102D2800F7B502268B8905000C00334206D0230034
:102D380047332360236101236361F7BD6A4601AB12
:102D4800FFF7C6FF00990700280000F099F800284F
:102D580008D10C22A35E9A05EFD4032293431E43A5
:102D6800A681E4E70F4BAB628023A289206013435E
:102D7800A381009B20616361019B002B0DD028007B
:102D88000E23E15E00F088F9002806D00322A3890B
:102D980093431A0001231343A381A0890743A78102
:102DA800CBE7C046152B000870B50500002910D0E8
:102DB8000C1F2368002B00DAE418280000F092F9B1
:102DC8001D4A1368002B05D163601460280000F0C9
:102DD80091F970BDA34208D9216860188342F3D1E4
:102DE80018685B6841182160EEE71A005B68002BE1
:102DF80001D0A342F9D911685018A0420BD120681C
:102E08000918501811608342E0D118685B684118AE
:102E180011605360DAE7A04202D90C232B60D5E792
:102E280021686018834203D118685B6841182160E3
:102E380063605460CAE7C046F801002070B50F4EC1
:102E48000D0031680400002902D100F08FF83060CD
:102E58002900200000F08AF8431C0AD00323C51C6F
:102E68009D43A84207D0291A200000F07FF8431C90
:102E780001D101256D42280070BDC046FC0100202B
:102E8800F7B50322CB1C9343083306001F000C2B15
:102E980032D20C27B94231D8300000F023F9324D34
:102EA8002B681C00002C2ED139003000FFF7C6FF1C
:102EB8000400431C1ED12C682500002D4AD123682C
:102EC8002900E3183000019300F050F8019B834279
:102ED80043D123680337FF1A03239F4308370C2F76
:102EE80000D20C2739003000FFF7A8FF431C34D06C
:102EF8002368DF19276013E0002BCBDA0C230025A9
:102F080033602800FEBD2268D11B20D40B2917D9B5
:102F1800E2192760A34211D12A60636811605360E7
:102F28003000250000F0E6F807220B35231D9543F5
:102F3800EA1A9D42E5D05B1BA350E2E75A60ECE732
:102F48006268A34201D12A60EAE75A60E8E72300F1
:102F58006468A7E72C006D68AFE70C233000336086
:102F680000F0C8F8CDE7C046F8010020002370B58E
:102F7800064D040008002B60FDF760FC431C03D1DC
:102F88002B68002B00D0236070BDC04600020020D3
:102F980070B50C000E25495F00F0B4F8002803DB7B
:102FA800636D1B18636570BDA389024A1340A38132
:102FB800F9E7C046FFEFFFFFF8B51F008B89050052
:102FC8000C001600DB0505D50E23C95E002202237E
:102FD80000F074F8A389054A28001340A381320041
:102FE8000E23E15E3B0000F01FF8F8BDFFEFFFFF86
:102FF80070B50C000E25495F00F060F8A389421CEB
:1030080003D1054A1340A38170BD802252011343A6
:10301800A3816065F8E7C046FFEFFFFF10B50E23F8
:10302800C95E00F015F810BD70B504000800110065
:103038001A000023054D2B60FDF710FA431C03D13D
:103048002B68002B00D0236070BDC0460002002012
:10305800002370B5064D040008002B60FDF720FC26
:10306800431C03D12B68002B00D0236070BDC046E1
:1030780000020020002370B5064D0400080011006E
:103088002B60FDF710FC431C03D12B68002B00D0EC
:10309800236070BD00020020002370B5064D0400B7
:1030A80008002B60FDF704FC431C03D12B68002BA0
:1030B80000D0236070BDC0460002002070B5040037
:1030C800080011001A000023054D2B60FDF7F2FBE4
:1030D800431C03D12B68002B00D0236070BDC04671
:1030E8000002002010B50248FFF7EFFD10BDC046F2
:1030F800F401002010B50248FFF7E8FD10BDC046F6
:10310800F401002070B50400080011001A00002323
:10311800054D2B60FDF7B6FB431C03D12B68002B34
:1031280000D0236070BDC04600020020F8B5C0463C
:10313800F8BC08BC9E467047F8B5C046F8BC08BC49
:043148009E467047E8
:10314C00536C617665207265616479000000000043
:10315C000000000000000000000000000000000063
:10316C000000000000000000000000000100000052
:10317C000200000003000000040000000600000034
:10318C00070000000800000009000000000000001B
:10319C000000000000000000000000000100000022
:1031AC000200000003000000040000000100020007
:1031BC000400060008000A000C001000200040006B
:1031CC00800000010804020408010101010101034F
:1031DC0007010000140000200000000000000000A7
:1031EC0000000000000000000000000000000000D3
:1031FC0000000000000000000000000000000000C3
:10320C0000000000000000000000000000000000B2
:10321C0000000000000000000000000000000000A2
:10322C000000000000000000000000000000000092
:08323C0000000000000000008A
:04324400E10000089D
:04324800B9000008C1
:10324C00150000000024F400010000000400000040
:10325C001400002000000000043200082432000892
:10326C00E431000800000000000000000000000035
:10327C000000000000000000000000000000000042
:10328C000000000000000000000000000000000032
:10329C000000000000000000000000000000000022
:1032AC000000000000000000000000000000000012
:0432BC00000000000E
:04000005080025E9E1
:00000001FF
